S00B00006173702E73726563D5
S3150800000098D200200102000835D1020835D102082D
S3150800001035D1020835D1020835D1020835D1020892
S3150800002035D1020835D1020835D10208AFD2020807
S3150800003035D1020835D1020835D10208B3D10208F4
S31508000040B3D10208B3D10208B3D10208B3D102086A
S31508000050B3D10208B3D10208B3D10208B3D102085A
S31508000060B3D10208B3D10208B3D10208B3D102084A
S31508000070B3D10208B3D10208B3D10208B3D102083A
S31508000080B3D10208B3D10208B3D10208B3D102082A
S31508000090B3D10208B3D10208B3D10208B3D102081A
S315080000A0B3D10208B3D10208B3D10208B3D102080A
S315080000B0B3D10208B3D10208B3D10208B3D10208FA
S315080000C0B3D10208B3D10208B3D10208B3D10208EA
S315080000D0B3D10208B3D10208B3D10208B3D10208DA
S315080000E0B3D10208B3D10208B3D10208B3D10208CA
S315080000F0B3D10208B3D10208B3D10208B3D10208BA
S31508000100B3D10208B3D10208B3D10208B3D10208A9
S31508000110B3D10208B3D10208B3D10208B3D1020899
S31508000120B3D10208B3D10208B3D10208B3D1020889
S31508000130B3D10208B3D10208B3D10208B3D1020879
S31508000140B3D10208B3D10208B3D10208B3D1020869
S31508000150B3D10208B3D10208B3D10208B3D1020859
S31508000160B3D10208B3D10208B3D10208B3D1020849
S31508000170B3D10208B3D10208B3D10208B3D1020839
S31508000180B3D10208B3D10208B3D10208B3D1020829
S31508000190B3D10208B3D10208B3D10208B3D1020819
S315080001A0B3D10208B3D10208B3D10208B3D1020809
S315080001B0B3D10208B3D10208B3D10208B3D10208F9
S315080001C0B3D10208B3D10208B3D10208B3D10208E9
S315080001D0B3D10208B3D10208B3D10208B3D10208D9
S315080001E0B3D10208B3D10208B3D10208B3D10208C9
S315080001F0B3D10208B3D102080000000000000000D5
S3150800020071B64FF0000080F31488BFF36F8F18485B
S31508000210016881F3088817484FF47001026842EABA
S31508000220010202604FF0404013490860134800B1CC
S3150800023080474FF000001249124A914204D20860E2
S3150800024001F104019142FAD30F49104A914208D2AA
S315080002500F4B0868186001F1040103F10403914289
S31508000260F7D30C4800B180472DF092FAFEE700005C
S31508000270E8DF030888ED00E034EF00E065380008A1
S31508000280B8080020C8CF022088F0030840F9030800
S31508000290000000200000000000207047704700BFE3
S315080002A04FF0FF30704700BF4FF0FF30704700BF78
S315080002B02DE9F04786B04E4EDFF884A14FF00108CD
S315080002C00DF117034B4A03250746DFF878913046A8
S315080002D000930024484B49498DF81750484DCDE9FD
S315080002E0012A484A06F02AFC3046414606F0E8FF4D
S315080002F04946304606F0F0FD304606F0F1FD304638
S3150800030006F020FD404E414B2846414A4149CDF86A
S3150800031008A0CDE900461C601C75146014750C60B5
S315080003200C7506F00BFC284641463B4E06F0C8FF06
S315080003304946284685F8EB8006F0CEFD284606F0A5
S31508000340FBFC284606F0FEFC284614F063FC02F087
S3150800035007FF02F0B3FE02F04BFE27F031FB00F078
S31508000360CBFE00F075FE304626F0ECFC26F0CAFC03
S31508000370204626F079FB404626F0AAFB26F008FB25
S3150800038000F09CFB2549264821F086FE2146254893
S3150800039020F042FB2146244820F0A6FB21463046A1
S315080003A020F016FB022121481FF08AF922F0F6FDFB
S315080003B025F01CFF314628464FF4616225F070FD92
S315080003C01B4E4FF46161502243462846009203941F
S315080003D0184ACDE90116184925F01EFE174826F0D9
S315080003E0ABF9384627F09CFD06B0BDE8F08700BF9C
S315080003F0DC77012011980108D00800200089002028
S31508000400B076012030890020AD850208B8080020A2
S3150800041018890020E88800209C3203084D0202084B
S31508000420D8C70220A8320308B03203080800002003
S315080004306D050008C4320308CC32030808350308E2
S31508000440D99A01084904000830B504461E4983B004
S315080004501E4D94F8E72094F8EA3012F0010F1C4874
S3150800046094F8E92008BF0D4694F8E810009505F0C1
S315080004707FFF201D11F05AFE0146164805F078FF49
S3150800048004F11C0011F052FE0146134805F070FFF6
S3150800049004F1340011F04AFE0146104805F068FFE1
S315080004A004F14C0015F08AFF01460D4805F060FF7F
S315080004B00C4B1B680BB903B030BD204603B0BDE832
S315080004C0304025F043BC00BFD4320308504D030822
S315080004D0DC320308F432030808330308143303082C
S315080004E0203303086089002010B58AB0002101A8CE
S315080004F027F068FCF0B9044601A9144819F038FC3D
S31508000500214601A8012427F0E1FC114B02A9052088
S315080005100493029428F01CF90E4800F031FC0E4BA7
S3150800052002A905200493029428F012F90B4B1C60CB
S315080005300AB010BD0A4B40F28B220A490A4805F058
S3150800054017FF002005F03CFC27F0F4FAB10200087A
S3150800055084330308488900209833030860890020FB
S3150800056034330308403303085C33030808B506220E
S31508000570084925F0D3FB00B908BD074B40F20D1218
S315080005800649074805F0F4FE002005F019FC27F097
S31508000590D1FA00BFB033030834330308B83303086D
S315080005A05C33030800B589B00122054B052069466E
S315080005B00092029328F0CCF809B05DF804FB00BF5E
S315080005C0D833030831F016BF00B591B002460023B0
S315080005D007A904A8CDE904232BF098FD099B0C99DB
S315080005E0009301F2B271DDE90702CDE90120DDE9E8
S315080005F00A32034805F0BCFE11B05DF804FB00BFE3
S31508000600E833030870B501218AB004463F2028F074
S3150800061079F900285EDB22463C49052002F0CEFE29
S31508000620012028F011FA041E48DB4FF4A2610120CC
S3150800063028F0E4FB00285FDB354B0024354A6FF0D1
S315080006407F41354E4FF0FF301A60344D344A1C75E1
S315080006501160344B344934752C70344E344D14754E
S315080006601C75344A1E600C75334B0D603349106097
S31508000670196014751C7527F0CBFA0120234622460B
S315080006802F4900902F4827F053FB2F49052002F0E9
S3150800069095FE2EF06FFB2DF099F8002823DB40F22B
S315080006A0E1222A4B02252A4C02A90020029506932C
S315080006B0CDE9044228F04CF80AB070BD63B229337C
S315080006C0B3D002F057FF234902462312032002F053
S315080006D075FEAAE700904FF42C721F4B03201C49A5
S315080006E002F028FF97E700904FF438721B4B03205F
S315080006F0174902F01FFFD2E7009040F2BF22184BBD
S315080007000320134902F016FF96E700BF4434030896
S31508000710B8080020C0A800014889002008790120EF
S3150800072018890020E8880020D0080020C0A8000208
S31508000730C0A802013089002000890020C0A8020252
S31508000740E9040008D8340308E4340308E8980308E1
S31508000750343303086834030808340308FC340308F0
S3150800076090340308012803DD4A68024B12781A7090
S31508000770002070476489002001281FDDF8B54E68FF
S315080007800021013E0A46084603E005EB4702042914
S3150800079010D016F8014FCB0002EB8207A4F1300502
S315080007A002FA03F3EAB2092AEFD900221843013103
S315080007B0002CECD100F0DEFA0020F8BD4FF0FF3037
S315080007C0704700BF01282DE9F04135DD4D682A78CC
S315080007D0A2F13003092B58D8002404EB840302EB5A
S315080007E0430315F8012FA2F13006A3F13004092EB0
S315080007F0F3D902283BD08868A3F131020178A1F128
S315080008003003092B16D8002303EB830301EB4303BC
S3150800081010F8011FA1F13005303B092DF4D9072A3C
S315080008200AD843B31F4D013C01232A68A34013434A
S315080008302B6002E0072A1ED91A4D1B4800240127FF
S31508000840DFF86C80194E05F095FA07FA04F32A6862
S3150800085001343046134208BF404605F089FD082C8E
S31508000860F3D10A2005F0A2FA0020BDE8F081A3F131
S315080008703102072AE0D801220A4D631E02FA03F361
S315080008802A6822EA03022A60D7E70228D4D08868B1
S315080008900178A1F13003092BCED84FF0FF3200249E
S315080008A0B1E700BFF8C80220183503083C3503082D
S315080008B04435030802284EDD486838B50278A2F1A7
S315080008C03003092B3DD8002505EB850302EB4303CE
S315080008D010F8012FA2F13004A3F13005092CF3D941
S315080008E08868A3F131020178A1F13003092B1CD8DD
S315080008F0002404EB840401EB440410F8011FA1F161
S315080009003003303C092BF4D9032A01D9002038BD1D
S315080009102AF016F96CB16B1E104A32F813301843D8
S3150800092080B22AF02BF9002038BD032AEED82AF027
S3150800093007F96B1E094A32F8133020EA030080B221
S31508000940EFE788680178A1F13003092BDED84FF06C
S31508000950FF320025CCE74FF0FF30704748360308D2
S31508000960014804F0CBBD00BF10000020024B002256
S3150800097018781A7040B2704764890020064B002226
S3150800098018781C3320B101320A2AF9D100207047A1
S3150800099004200A60704700BF68890020034605499D
S315080009A012680020D3F8E830C3EBC30301EB8303D6
S315080009B09A6170476889002038B5C3680C46D0F834
S315080009C0E810012B16D0022B12D10F4DC1EBC10135
S315080009D005EB81014D1C284632F012F929460246DC
S315080009E0204627F0BFF8284632F00AF900B238BD8B
S315080009F0002038BD044BC1EBC101042003EB810183
S31508000A008B69236038BD00BF688900202DE9F04155
S31508000A1001238AB00F469046009305A803AB11F848
S31508000A20042B154D00241FF0F5FA02E001340A2CB8
S31508000A300DD02E781C35002EF8D02346013401221D
S31508000A4004A905A804961FF015FB0A2CF1D19DF8F8
S31508000A50224024B1F12420460AB0BDE8F081384688
S31508000A609DF8202007991EF0A3FF099B2046C8F889
S31508000A70E8300AB0BDE8F0816889002038B50C4630
S31508000A801D46114601230B4A20461FF023FB50B191
S31508000A9024680021084A10781C3208B1A04204D004
S31508000AA001310A29F7D1F12038BD0020C5F8E81030
S31508000AB038BD00BF2437030868890020F8B54FF40D
S31508000AC08C7200210D480B2531F03CFC0C4805F0D2
S31508000AD051F90C4C00230C4F5E1C20463A46152152
S31508000AE004F8016C27F004FC042EC4F817503346AA
S31508000AF004F11C0405F10B05EED1F8BD6889002048
S31508000B0050360308698900207C3603082DE9F04F22
S31508000B108F4FAFB00120002100223B680692CDE935
S31508000B2004011BB11A7D002A40F0F180012203213D
S31508000B3002201AF0D7FD0646002EC0F2FA801020D1
S31508000B4041F2060240F6FF710DEB000300903046B5
S31508000B501BF0F2FA002840F0EF80D7F800A005460F
S31508000B60DFF80CB20DF10C09DAF800300DF13C088B
S31508000B704BB94FF4FA702EF0E5FBD7F800A0DAF877
S31508000B800030002BF5D09AF81430062B00F08F8031
S31508000B9028200FF0BFFB0446002800F08880BBF829
S31508000BA0000000226FF050030821013062702170A6
S31508000BB080B2A270E27023716371ABF800000EF088
S31508000BC017FB0022E11DE080134601F8013F0133BF
S31508000BD0202BFAD1282120460EF0D8FA60809AF800
S31508000BE01430002B6FD0062B0BD140F60423ADF83A
S31508000BF07830DAE900302093DAE90213CDE92101E9
S31508000C0023931EAB4FF01C0A214628220093304638
S31508000C100023CDF804A01AF059FC034620461C46CA
S31508000C200FF0D2F9002C42D026F0B8FF494B002429
S31508000C30CDF80CA0186001E01C2303930023402282
S31508000C401EA93046CDF80490CDF800801AF0A8F910
S31508000C50002822DD1B28EFDD9DF83D30022BCDE96B
S31508000C600944CDE90B44CDE90D4434D00A2BE3D031
S31508000C709DF878301EAA4AF6AF7103F00F0302EB0F
S31508000C8083039A888A4229D00123334A16A9052064
S31508000C901892169327F05CFDCEE703462F480122EB
S31508000CA016A9189005201993169227F051FD0135BB
S31508000CB04FF47A7026F054FF032D7FF75EAF3B683A
S31508000CC000251D6055E74FF40173ADF87830DAF862
S31508000CD000301F9395E7109B0993C9E7B3F806A060
S31508000CE0BBF800000EF084FA8245CDD1099C26F0A7
S31508000CF055FF184B012216A919941B681692C31A98
S31508000D001748189005201A9327F022FDCFE71A688E
S31508000D1032B95A6822B99B6813F5803F3FF406AF8B
S31508000D203A2203210A201AF0DDFC0646002EBFF6F9
S31508000D3006AF2FB0BDE8F08F0A4B40F219120A49E8
S31508000D400A4805F015FB002005F03AF826F0F2FEF1
S31508000D50848A0020888A002094370308A03703086D
S31508000D607C3703082C3703085C3703085C33030811
S31508000D70808A0020014B1B6818607047848A00200F
S31508000D8030B5002383B001220546054C00921A4669
S31508000D9004490548256026F0CBFF03B030BD00BFE7
S31508000DA0848A00200D0B0008B037030810B50446E6
S31508000DB0406819F05BFF0F4A1368A3420BD02BB1AA
S31508000DC01A68A2420ED01346002BF9D12046BDE878
S31508000DD010400FF0F9B823682046BDE810401360AC
S31508000DE00FF0F2B8226820461A60BDE810400FF0EE
S31508000DF0EBB800BF8C8A00202DE9F04FA7B000267B
S31508000E0001210A200DF12C0832460B960DACC8E9D3
S31508000E100166C8E90366C8E905661AF063FC0A2292
S31508000E20844B054604908DF82D200FCB84E80F00DF
S31508000E3013200EF0DDF9B542ADF82E00C0F2E780BA
S31508000E401C224146049819F0A1FE013000F0EE80FC
S31508000E50049C052120461AF06DF8013000F0E28066
S31508000E60630904F01F020121DFF8E0A19B0009AF26
S31508000E70059301FA02F3029363180DF182040393B2
S31508000E8026AA059BDAF8005002EB030907AB03F81C
S31508000E90016BBB42FBD13B4603F8016B4345FBD1D3
S31508000EA059F87C3C029A0398134349F87C3CDDB117
S31508000EB04FF0010C6B6826AA2D6883424FEA531E31
S31508000EC0A8BF581C02EB8E0E03F01F035EF87C1CAD
S31508000ED00CFA03F35EF8742C194313434EF87C1C82
S31508000EE04EF8743C002DE5D100233A4607A9009335
S31508000EF01AF05EFC10B9DAF80050C7E759F87C3CDE
S31508000F00029A1A4259D1DAF80050002DBED0686804
S31508000F104FF0010B09E026A90B4453F8743C1A421A
S31508000F2023D12D68002DE6D06868430926A900F06C
S31508000F301F0201EB83010BFA02F29B0051F87C1C9D
S31508000F400A42E8D0502212A91AF0A6F800284CDD69
S31508000F506A6826A9530902F01F029B000BFA02F2DF
S31508000F600B4453F8743C1A42DBD095F828300DF13F
S31508000F704702591C02F8013FCBB27F2B08BF212339
S31508000F809442F6D10D234FF00A0212A88DF8832059
S31508000F90ADF8843031F034FE12A9024668681AF0BA
S31508000FA0F1FB002821DB95F828300133DBB27F2BD3
S31508000FB008BF212385F82830B3E72C200FF0AAF9BB
S31508000FC00546B0B100F1240200F10801049819F0B1
S31508000FD0DFFC0028686016DBDAF800202123CAF84F
S31508000FE000502A6085F8283092E72846FFF7DEFE8B
S31508000FF046E706AA12A9049819F0CAFC002882DB5B
S3150800100019F034FE7FE728460EF0DEFF7BE70A4B31
S31508001010A4220A490A4805F0ABF9304604F0D0FE86
S3150800102026F088FD044BAC220649F3E7024BA722BB
S315080010300549EFE770880308BC370308F03703084B
S315080010405C33030840380308183803088C8A0020E4
S3150800105000B5002383B0FE220449054800921A46CB
S3150800106026F066FE03B05DF804FB00BFF90D000824
S315080010706438030800222820F0B5114683B01BF017
S3150800108027FF0546072217491BF0DCFFFDB1164F5F
S315080010903E4601A928461CF0DFF904460028F8D187
S315080010A0019823464FF48052314600680EF020FD21
S315080010B0019903460A681289904204D12846FC54CD
S315080010C01CF038FA019908461BF082FCE1E7074B49
S315080010D03B220749074805F04BF9284604F070FEFD
S315080010E026F028FDDC850308908A00206C38030862
S315080010F0A03803085C33030800B5002383B0012237
S315080011000449054800921A4626F012FE03B05DF817
S3150800111004FB00BF75100008B838030810B584B082
S315080011200C46039031F06CFD0023024603992046D5
S3150800113000931CF0C5FA04B010BD00BF10B50446F4
S3150800114006482168FFF7EAFF21680548FFF7E6FF2A
S3150800115021680448FFF7E2FF002010BD28000020A0
S31508001160EC010020E00300202DE9F0410A2282B0BC
S3150800117000210446C06831F0B7FE0A2835DC234E44
S31508001180054656F82030002B37D0D4F810800027B3
S31508001190404631F035FD0D230A21C21C08F80030FF
S315080011A0236903445970012321690844877000970D
S315080011B056F8250021691CF083FA216830B91448CD
S315080011C0FFF7ACFF002002B0BDE8F0811148FFF739
S315080011D0A5FF21681048FFF7A1FF21680F48FFF710
S315080011E09DFF002002B0BDE8F08121680C48FFF79A
S315080011F095FF002002B0BDE8F08121680948FFF795
S315080012008DFF002002B0BDE8F08100BF909E00204F
S31508001210643903081039030828390308783C030899
S31508001220C8380308EC38030870B52B4E82B0002482
S315080012300546334653F8041B49B101340A2CF9D143
S3150800124029682648FFF76AFF002002B070BD0A2207
S31508001250E86831F049FE0A282FDC56F820000028F5
S3150800126032D006EB84011BF0EFFF29680646B0B9B9
S315080012701B48FFF753FF23461A4A4FF480611A4862
S3150800128027F036F8184831F0BBFC009602460123D1
S31508001290286815491CF014FA002002B070BD1348DE
S315080012A0FFF73CFF29681248FFF738FF29681148FD
S315080012B0FFF734FF002002B070BD29680E48FFF71B
S315080012C02DFF002002B070BD29680C48FFF726FFE5
S315080012D0002002B070BD00BF909E0020F0390308C0
S315080012E0A4390308E8390308909A002084390308CA
S315080012F028390308783C0308C8380308EC3803087B
S315080013002DE9F0410A2284B000210646C06831F072
S31508001310EBFDB0F5803F56D2DFF83881074600244A
S31508001320434653F8045B55B101340A2CF9D13168A8
S315080013303C48FFF7F3FE002004B0BDE8F0813168B1
S315080013403948FFF7EBFEF1680846039131F058FC7F
S31508001350012302460399009530681CF0B1F93168FB
S315080013603248FFF7DBFE2A46294610201BF0B0FD5F
S3150800137048F8240000284DD0BAB22D491BF062FE69
S31508001380074640BBFF2158F824001BF035FF0546E9
S31508001390002836D131682748FFF7C0FE2346264A7B
S315080013A04FF48061254826F0A3FF244831F028FC35
S315080013B0009502460123306820491CF081F9002077
S315080013C004B0BDE8F08131681D48FFF7A7FE00208C
S315080013D004B0BDE8F08158F824001BF0D9FD19487F
S315080013E0316848F82450FFF799FE31681648FFF728
S315080013F095FE31680D48FFF791FE002004B0BDE860
S31508001400F08158F824001BF0C3FD31680F4848F8EE
S315080014102470E8E731680E48FFF780FE002004B024
S31508001420BDE8F081F0390308C43A0308783C03089C
S31508001430007C0308943A0308E8390308909A0020C8
S31508001440183A03086C3A030828390308803A03084F
S31508001450303A0308909E00202DE9F0410A22002127
S315080014600446C06831F040FD0A2830DCDFF8BC804D
S31508001470054658F82030002B43D0206931F0C0FBD0
S31508001480461CB6F5803F1BD21BF092FA0746B1B24E
S315080014901BF0B0FA80B33246216931F05DFC39465B
S315080014A058F825001CF046F8054638461BF090FA11
S315080014B021689DB91548FFF731FE0020BDE8F08187
S315080014C021681348FFF72AFE0020BDE8F08121684D
S315080014D01048FFF723FE0020BDE8F0810E48FFF70D
S315080014E01DFE21680D48FFF719FE21680C48FFF715
S315080014F015FE0020BDE8F08121680A48FFF70EFEB8
S31508001500DBE721680848FFF709FED6E72C3B030806
S31508001510EC3A0308C83803081039030828390308C1
S31508001520783C0308003B0308EC380308909E00202B
S315080015302DE9F0470A228AB000210546C06831F035
S31508001540D3FCB0F5803F24D2804604A9286906F06A
S315080015502DF8431C074600F0B3800A22002168696B
S3150800156031F0C2FCB0F5803F824612D2DFF89C917A
S3150800157000244B4653F8046BA6B101340A2CF9D162
S31508001580002729685348FFF7C9FD38460AB0BDE861
S31508001590F087296800275048FFF7C0FD38460AB08B
S315080015A0BDE8F08729684D48FFF7B8FDE9680846A1
S315080015B0039131F025FB012302460399009628681A
S315080015C01CF07EF829684648FFF7A8FD29690846F1
S315080015D0039131F015FB012302460399009628680A
S315080015E01CF06EF829683F48FFF798FD69690846B8
S315080015F0039131F005FB01230246039900962868FA
S315080016001CF05EF829683848FFF788FD32463146EF
S3150800161022201BF05DFC074649F8240000284AD022
S315080016201FFA8AF204A91BF093FD8246002838D1D6
S315080016301FFA88F22D4959F824001BF003FD0746C6
S31508001640C0B929682A48FFF769FD2346294A4FF495
S315080016508061294826F04CFE274831F0D1FA0097D8
S3150800166002460123286824491CF02AF838460AB09D
S31508001670BDE8F08759F8240057461BF089FC1F4837
S31508001680296849F824A0FFF749FD29681C48FFF78F
S3150800169045FD29681448FFF741FD38460AB0BDE8FC
S315080016A0F08759F8240037461BF072FC296815485C
S315080016B049F82460E7E729681348FFF72FFD6DE727
S315080016C030F0F4FC006831F06FFA2968FFF726FD60
S315080016D064E700BFF0390308183A0308903B03088B
S315080016E0C83B0308D03B0308783C0308007C030882
S315080016F0603B0308E8390308909A00206C3A03080F
S31508001700283903083C3B0308303A0308909E00201A
S315080017102DE9F0470A228AB000210546C06831F053
S31508001720E3FBB0F5803F24D2804604A9286905F07A
S315080017303DFF431C074600F0B3800A220021686972
S3150800174031F0D2FBB0F5803F824612D2DFF89C9189
S3150800175000244B4653F8046BA6B101340A2CF9D180
S31508001760002729685348FFF7D9FC38460AB0BDE870
S31508001770F087296800275048FFF7D0FC38460AB09A
S31508001780BDE8F08729684D48FFF7C8FCE9680846B0
S31508001790039131F035FA0123024603990096286829
S315080017A01BF08EFF29684648FFF7B8FC29690846EA
S315080017B0039131F025FA0123024603990096286819
S315080017C01BF07EFF29683F48FFF7A8FC69690846B1
S315080017D0039131F015FA0123024603990096286809
S315080017E01BF06EFF29683848FFF798FC32463146E9
S315080017F021201BF06DFB074649F8240000284AD033
S315080018001FFA8AF204A91BF0A3FC8246002838D1E5
S315080018101FFA88F22D4959F824001BF013FC0746D5
S31508001820C0B929682A48FFF779FC2346294A4FF4A4
S315080018308061294826F05CFD274831F0E1F90097D8
S3150800184002460123286824491BF03AFF38460AB0A5
S31508001850BDE8F08759F8240057461BF099FB1F4846
S31508001860296849F824A0FFF759FC29681C48FFF79E
S3150800187055FC29681448FFF751FC38460AB0BDE8FC
S31508001880F08759F8240037461BF082FB296815486B
S3150800189049F82460E7E729681348FFF73FFC6DE736
S315080018A030F004FC006831F07FF92968FFF736FC50
S315080018B064E700BFF0390308183A0308D43B030865
S315080018C0C83B0308D03B0308783C0308007C0308A0
S315080018D0603B0308E8390308909A00206C3A03082D
S315080018E0283903083C3B0308303A0308909E002039
S315080018F02DE9F0470A228AB000210546C06831F072
S31508001900F3FAB0F5803F24D2804604A9286905F089
S315080019104DFE431C074600F0A4800A220021686990
S3150800192031F0E2FAB0F5803F824612D2DFF87891BC
S3150800193000244B4653F8046BA6B101340A2CF9D19E
S31508001940002729684B48FFF7E9FB38460AB0BDE887
S31508001950F087296800274848FFF7E0FB38460AB0B1
S31508001960BDE8F08729684548FFF7D8FBE9680846C7
S31508001970039131F045F90123024603990096286838
S315080019801BF09EFE29683E48FFF7C8FB29690846F2
S31508001990039131F035F90123024603990096286828
S315080019A01BF08EFE29683748FFF7B8FB32463146EA
S315080019B020201BF08DFA074649F82400002837D066
S315080019C01FFA8AF204A91BF0C3FB0746002834D184
S315080019D09DF82430062B19D029682B48FFF79EFB63
S315080019E023462A4A4FF48061294826F081FC284874
S315080019F031F006F90021024601232868009124499E
S31508001A001BF05EFE38460AB0BDE8F0871FFA88F27A
S31508001A10204959F824001BF015FB0028DCD059F89A
S31508001A2024001BF0B5FA29681B4849F824700DE014
S31508001A3029681A48FFF772FB90E759F824003746D9
S31508001A401BF0A6FA1648296849F82460FFF766FBD2
S31508001A5029681448FFF762FB29680A48FFF75EFB06
S31508001A607CE730F023FB006831F09EF82968FFF721
S31508001A7055FB73E7F0390308183A0308003C0308D6
S31508001A80C83B0308783C0308603B0308E8390308A9
S31508001A90909A0020187C03086C3A0308303A030829
S31508001AA03C3B030828390308909E00202DE9F0479F
S31508001AB00A228AB000210546C06831F015FAB0F549
S31508001AC0803F24D2804604A9286905F06FFD431C8F
S31508001AD0074600F0B3800A220021686931F004FA4B
S31508001AE0B0F5803F824612D2DFF89C9100244B461F
S31508001AF053F8046BA6B101340A2CF9D100272968DA
S31508001B005348FFF70BFB38460AB0BDE8F08729684B
S31508001B1000275048FFF702FB38460AB0BDE8F087B1
S31508001B2029684D48FFF7FAFAE9680846039131F043
S31508001B3067F8012302460399009628681BF0C0FD42
S31508001B4029684648FFF7EAFA29690846039131F0F9
S31508001B5057F8012302460399009628681BF0B0FD42
S31508001B6029683F48FFF7DAFA69690846039131F0B0
S31508001B7047F8012302460399009628681BF0A0FD42
S31508001B8029683848FFF7CAFA3246314620201BF042
S31508001B909FF9074649F8240000284AD01FFA8AF216
S31508001BA004A91BF0D5FA8246002838D11FFA88F214
S31508001BB02D4959F824001BF045FA0746C0B929688B
S31508001BC02A48FFF7ABFA2346294A4FF48061294889
S31508001BD026F08EFB274831F013F8009702460123BA
S31508001BE0286824491BF06CFD38460AB0BDE8F08722
S31508001BF059F8240057461BF0CBF91F48296849F8BD
S31508001C0024A0FFF78BFA29681C48FFF787FA29688A
S31508001C101448FFF783FA38460AB0BDE8F08759F842
S31508001C20240037461BF0B4F92968154849F824609A
S31508001C30E7E729681348FFF771FA6DE730F036FAD7
S31508001C40006830F0B1FF2968FFF768FA64E700BF5B
S31508001C50F0390308183A0308303C0308C83B030860
S31508001C60D03B0308783C0308007C0308603B030864
S31508001C70E8390308909A00206C3A030828390308C3
S31508001C803C3B0308303A0308909E0020F0B50A2230
S31508001C9087B000210446C06831F026F90A2845DCD9
S31508001CA0294F054657F82000002846D005A91BF0FD
S31508001CB0D3FB064658B125482168FFF72FFA57F88F
S31508001CC025001BF00FFD10BB002007B0F0BD0598DE
S31508001CD033464FF480621E4900680DF009FF059BE4
S31508001CE021681B681B481A890392FFF717FA012314
S31508001CF0039A1749009620681BF0E2FC05981AF02B
S31508001D0067FE57F825001BF0EDFC0028DCD021689B
S31508001D101148FFF703FA21681048FFF7FFF9216811
S31508001D200F48FFF7FBF9002007B0F0BD21680D4802
S31508001D30FFF7F4F9002007B0F0BD21680A48FFF75D
S31508001D40EDF9002007B0F0BD909E0020743C030812
S31508001D50909A0020583C03087C3C0308283903085D
S31508001D60783C0308C8380308EC3803082DE9F04125
S31508001D7004469CB0104617460D464FF0000830F052
S31508001D803FFF06463946204601233246CDF80080F5
S31508001D901BF096FC092E27D900262A88174903A87E
S31508001DA004F006FB03A902460123204600961BF011
S31508001DB087FC6A8803A8124904F0FAFA03A90246BE
S31508001DC00123204600961BF07BFCAA8803A80D4930
S31508001DD004F0EEFA03A902460123204600961BF0FA
S31508001DE06FFC1CB0BDE8F081C6F10A020123064962
S31508001DF02046CDF800801BF063FCCDE7983C03082D
S31508001E00A83C0308CC3C0308200400202DE9F04335
S31508001E108BB00746C06804A905F0C8FB431C00F050
S31508001E2097800A220021386931F05EF8B0F5803FC4
S31508001E30814660D2DFF864810024434653F8045B88
S31508001E405DB101340A2CF9D1002639684548FFF7F7
S31508001E5065F930460BB0BDE8F08339684248FFF7AC
S31508001E605DF9F9680846039130F0CAFE0095024606
S31508001E700123039938681BF023FC39683B48FFF7B0
S31508001E804DF939690846039130F0BAFE00950246C5
S31508001E900123039938681BF013FC39683448FFF7A7
S31508001EA03DF92A46294610201BF012F8064648F83E
S31508001EB02400002844D01FFA89F204A91BF048F927
S31508001EC0064608BB39682B48FFF728F923462A4AED
S31508001ED04FF48061294826F00BFA284830F090FE26
S31508001EE0009602460123386824491BF0E9FB304670
S31508001EF00BB0BDE8F083002639682148FFF70EF9D4
S31508001F0030460BB0BDE8F0831E4A2E461E491F48D0
S31508001F1004F078FA39681E48FFF700F939681D4851
S31508001F20FFF7FCF839681248FFF7F8F858F8240064
S31508001F301BF02EF8304648F824500BB0BDE8F08365
S31508001F4039681548FFF7EAF830460BB0BDE8F08364
S31508001F50064630F0ABF8006830F026FE3968FFF721
S31508001F60DDF8C4E7F0390308F43C0308D03B03085E
S31508001F70783C0308943A0308E8390308909A002045
S31508001F80183A030818BA0308E83C030870790120D0
S31508001F903C3B030828390308303A0308909E002082
S31508001FA010B586B004460222C06869461BF012FCCA
S31508001FB0A8B9114968464FF4806205F0EDFA216820
S31508001FC0A0B10E48FFF7AAF821680B48FFF7A6F854
S31508001FD021680B48FFF7A2F8002006B010BD21685B
S31508001FE00848FFF79BF8002006B010BD0648FFF723
S31508001FF095F8002006B010BD909A00200C3D030805
S31508002000783C0308343D03081C3D030810B5044614
S3150800201082B0C0681DF050F8A0B103460D4A4FF4CF
S3150800202080610D4826F064F90B4830F0E9FD00217F
S31508002030024601232068009107491BF041FB002056
S3150800204002B010BD21680548FFF768F8002002B005
S3150800205010BD00BF443D0308909A00204C3D03087C
S31508002060F8B50A2200210546C06830F03DFF0A2867
S3150800207021DC174F044657F8200010B31BF02EFB3F
S315080020802968064650B91348FFF748F857F8240058
S315080020901AF07EFF002047F82460F8BD0E48FFF7C7
S315080020A03DF829680D48FFF739F829680C48FFF705
S315080020B035F80020F8BD29680A48FFF72FF80020F0
S315080020C0F8BD29680848FFF729F80020F8BD00BFC1
S315080020D0909E0020843D0308643D030828390308C0
S315080020E0783C0308C8380308EC38030830B50021E3
S315080020F083B00A220446C06830F0F6FE16491CF082
S31508002100C7FF88B10025144830F07AFD012302463E
S315080021100095114920681BF0D3FA21680F48FEF78D
S31508002120FDFF002003B030BD05462FF0BFFF0C4A67
S315080021304FF480610368084826F0DAF8064830F05C
S315080021405FFD009502460123206803491BF0B8FA93
S31508002150002003B030BD00BF909A0020783C0308E9
S315080021609C3D0308F0B59DB04FF0FF3204460D467E
S3150800217003A82C4904F01CF903A830F041FD0027F8
S31508002180064603A920460123324600971BF098FA13
S31508002190092E3ED900266A8803A8234904F008F9BF
S315080021A00123024603A9204600961BF089FAAA884D
S315080021B01E4903A804F0FCF80123024603A9204699
S315080021C000961BF07DFAEA88194903A804F0F0F88E
S315080021D00123024603A9204600961BF071FA2A88B5
S315080021E0144903A804F0E4F80123024603A920468B
S315080021F000961BF065FA2A890F4903A804F0D8F857
S3150800220003A902460123204600961BF059FA1DB081
S31508002210F0BDC6F10A0201230849204600971BF0C3
S315080022204FFAB7E7BC3D0308C03D0308D43D030891
S31508002230A83C0308CC3C0308EC3D03082004002016
S315080022402DE9F04F0A229FB0DFF8D8A00646DFF83E
S31508002250D8B000272749284DDFF8D09000970123EA
S315080022603068023D1BF02CFA244C254ADFF8C08062
S3150800227001E054F8042F35F8023F414605A804F05A
S3150800228097F8009782B2012305A930681BF018FA5F
S315080022904C45EED11B4B9A450AD05BF8041B5AF8FD
S315080022A0045B0846039130F0ABFC03990246D5E778
S315080022B0154C3068A4F1080104F15005FFF752FFE8
S315080022C054F8041F3068FFF74DFFA542F8D130686F
S315080022D00E4A0F49FFF74AFD30680E4A0E49FFF7C6
S315080022E045FD30680D4A0E49FFF740FD00201FB036
S315080022F0BDE8F08F083E03081C7A012094420308C3
S31508002300143E030894420308E87A01202C3E030889
S315080023103C7B0120383E0308427B0120443E0308EB
S31508002320487B01207C4203085C420308C04203083C
S31508002330243E0308002310202DE9F04F2DED028BD3
S3150800234097B01A46194602931AF0C2FD814600282C
S3150800235000F005861722A4491AF074FE04460028E0
S3150800236040F01586FF2148461AF046FF002840F03F
S3150800237002869E4B08EE109ADFF8908204939C4BD7
S31508002380059307A918EE100A1AF05EFF0028F8D17F
S315080023900546079F044608A938461AF0E5FFD0B156
S315080023A0029B0F3300F0FA829249934803F0E0FF4C
S315080023B03846924C00251BF091F954F8040B08B1E5
S315080023C01AF0E6FD8E4B44F8045CA342F5D1079853
S315080023D01AF0DEFDD5E70898018946680FFA81FCF0
S315080023E04B1EBCF1000F1FFA83FB1AB240F3C882DA
S315080023F016F801AB082D0AD8DFE815F00E02D7014A
S31508002400070209000900090009000B0209028B1ED0
S31508002410002A1BB23CDDA14616F801AB9BB2BAF105
S31508002420FF0F19B212D0621CBAF10D0F08F804A0FA
S3150800243094B200F02682002940F3B482013B16F8D4
S3150800244001AB9BB2BAF1FF0F19B2ECD1013B0029DF
S315080024501FFA83FB1AB240F3C18216F801ABAAF140
S31508002460F60ABAF1090F0BD8DFE81AF092010A004A
S315080024700A000A000E0154019500D20038002B000C
S315080024800BF1FF331BB2002AC6DC4C4537D8089837
S315080024900DF084F8002C40F07D8208A938461AF021
S315080024A063FF00287FF47CAF089802894668531EAC
S315080024B012B2002A1BB240F35D84A14616F801AB9E
S315080024C0ACE70BF1FF33651CFF21002A1BB2ADB246
S315080024D008F8041040F3BE832C469DE70BF1FF3B3A
S315080024E0002A1FFA8BF30FFA8BFB40F3C0830136E1
S315080024F0013BBBF1000F1BB28EDC4C45C7D900254A
S31508002500C9F10100204480B20DF004FF06460028F8
S3150800251000F0C181A4EB090A0A2308EB090104F1BA
S31508002520FF390AF1010208F80430039225F01AFB74
S3150800253018F809300020039A31460D2B00904FF009
S315080025400103384618BF52461BF0BAF830460DF05C
S315080025503BFD08980DF022F818F809300A2B18BF29
S315080025600D2B03D0B4F5806FFFF415AF98F8006013
S31508002570FF2E06D098F80130FE2B02D0012C00F26F
S315080025808D8139461F48FEF7C9FD39461E48002485
S31508002590FEF7C4FDFFE60BF1FF3B002A1FFA8BF39B
S315080025A00FFA8BFBA3DC4C4500F2D28308980CF09B
S315080025B0F5FF002C40F0FC8308A938461AF0D4FE33
S315080025C000287FF4EDAE0898038946681AB203F12D
S315080025D0FF3B002A1FFA8BF30FFA8BFB40F35B8451
S315080025E00136A14684E700BF007C030841220008A3
S315080025F03D11000818BA0308B4400308909E00204D
S31508002600B89E002000400308A0400308909A0020C6
S315080026100BF1FF3B002A1FFA8BF30FFA8BFB3FF7F0
S3150800262066AF4C4500F2918308980CF0B7FF002C72
S3150800263040F0B98308A938461AF096FE00287FF4B8
S31508002640AFAE0898038946681AB203F1FF3B002A21
S315080026501FFA8BF30FFA8BFBC2DC0CF09FFF08A95D
S3150800266038461AF081FE00287FF49AAE0898038946
S3150800267046681AB203F1FF3B002A1FFA8BF30FFADA
S315080026808BFBADDC052577E10BF1FF33002A1BB286
S3150800269023DD16F801AB9BB2BAF1FF0F19B20AD0C7
S315080026A0002940F35081013B16F801AB9BB2BAF101
S315080026B0FF0F19B2F4D1013B00291FFA83FB1AB2A6
S315080026C040F3BD8116F801AB0BF1FF33BAF1F00FF9
S315080026D01BB23FF4D8AE002ADBDC4C4500F2588129
S315080026E008980CF05BFF002C40F0868208A9384653
S315080026F01AF03AFE00287FF453AE08980289466815
S31508002700531E12B2002A1BB240F36583A14616F87F
S3150800271001ABC0E70BF1FF3B002A1FFA8BF30FFA58
S315080027208BFB3FF7E4AE4C4500F2158308980CF096
S3150800273035FF002C40F0418308A938461AF014FEEC
S3150800274000287FF42DAE0898038946681AB203F16B
S31508002750FF3B002A1FFA8BF30FFA8BFB3FF740AFBC
S315080027600CF01CFF08A938461AF0FEFD00287FF475
S3150800277017AE0898038946681AB203F1FF3B002A88
S315080027801FFA8BF30FFA8BFB3FF72AAF0325F3E00B
S315080027903946B9480392FEF7C1FC039A0BF1FF3399
S315080027A0002A1BB23FF738AE6FE6A1460BF1FF339E
S315080027B0BAF1000F33D0BAF10A0F3FF463AE611CC9
S315080027C0002A08F804A01BB28CB23FF725AE4C4588
S315080027D03FF695AE08980CF0E1FE002C40F0DA8042
S315080027E008A938461AF0C0FD814600287FF4D8ADFE
S315080027F0089802894668531E12B2002A1BB240F393
S31508002800108316F801AB4C4608E6A14627E6A14612
S315080028105AE71346A1463EE71346A146FEE5002AB7
S315080028201BB23FF7F9AD4C453FF669AE08980CF078
S31508002830B5FE002C40F0AE8008A938461AF094FD83
S3150800284000287FF4ADAD089802894668531E12B277
S31508002850002A1BB23FF731AE0CF0A0FE08A9384695
S315080028601AF082FD814600287FF49AAD08980289FD
S315080028704668531E12B2002A1BB23FF7CDAD554625
S315080028807AE0013B00291FFA83FB1AB240F3B881AC
S3150800289016F801AB8AE704F1FF395AE6D8F8003092
S315080028A0764A934200F02581754A934200F0C78123
S315080028B0744A934200F01182734A934200F04E82A2
S315080028C0724A934200F07E82714A934200F0A282D5
S315080028D0704A934200F0BA826F4AD8F800309342A1
S315080028E000F0D2826D4A934200F0ED826C4A934220
S315080028F000F0F0826B4A934200F0F3826A4A9342F0
S3150800290000F00883694A934200F0F282684BD8F8CF
S3150800291000209A4200F0058309226649664830F08D
S31508002920DDF9002800F0148304226449624830F077
S31508002930D5F9002840F0E081059B8DF82C000A9314
S315080029405F4B059334E14C4522D808980CF026FED7
S31508002950002C40F0518108A938461AF005FD0028D8
S315080029607FF41EAD089802894668531E12B2002AE3
S315080029701BB23FF7CBAE072500240CF00FFE0AE585
S315080029800CF00CFE002C3FF406AD04F1FF39E3E52C
S315080029900725B5E5002504F1FF39DDE5494803F0CB
S315080029A0E9F905E54C453FF6AAAD08980CF0F6FDA1
S315080029B0002CEFD108A938461AF0D6FC00287FF477
S315080029C0EFAC089981460A894E68531E12B2002A4E
S315080029D01BB23FF716AF08464D46CDE74C4500F209
S315080029E0378108980CF0DAFD002C40F0978108A989
S315080029F038461AF0B9FC00287FF4D2AC0898018949
S31508002A0046684B1E09B200291FFA83FB1AB201DD7C
S31508002A10A14622E50CF0C2FD08A938461AF0A4FC26
S31508002A2000287FF4BDAC0898018946684B1E09B298
S31508002A3000291FFA83FB1AB2EADC02259CE74C45FB
S31508002A4000F2048108980CF0A9FD002C40F0628180
S31508002A5008A938461AF088FC00287FF4A1AC089823
S31508002A60018946684B1E09B200291FFA83FB1AB270
S31508002A702ADDA14626E600BFD03E03086F70656EC4
S31508002A806C73746E61637074636C6F737374617462
S31508002A9073656E6472656376756470637564706277
S31508002AA07564706C7564706E75736E646964787439
S31508002AB06E616D65543F0308909A0020603F0308D5
S31508002AC03D110008A44003080CF068FD08A9384623
S31508002AD01AF04AFC00287FF463AC08980189466816
S31508002AE04B1E09B200291FFA83FB1AB2C1DC08255E
S31508002AF042E74FF0020BB94B8DF82CB00A93B84950
S31508002B00002206E00132013394429BB271D911F8D2
S31508002B10016F202E93B2F5D100210BA80BF1FF39D6
S31508002B20DFF8ECE28A464FF0200C9C4206D807E014
S31508002B3001339BB29C4218F8036001D9202EF7D0C6
S31508002B400D2E2CD00A2E2AD09C42C0F0CD8008EB40
S31508002B50030240F8042F0AD812E05C2E01D108F8C7
S31508002B6003C001339BB29C420AD918F80360A6F148
S31508002B700A02D2B2162AF0D82EFA02F2D207F0D5F5
S31508002B809C42C0F0BF805A1C894508F803A093B23E
S31508002B900DD001310A290AD018F80360C5E70022CA
S31508002BA0494508F80320C0F29F80594514DA0A9B64
S31508002BB009A80997984703460290043300F0B580A0
S31508002BC0029B002B3FF4E1AC0433032B3FF6DDAC4C
S31508002BD0DFE803F00A028A9839468248FEF79EFA29
S31508002BE06FF002030293D0E439467F48FEF796FA5F
S31508002BF0CBE418F803608FE7072504F1FF39ABE447
S31508002C004C4568D808980CF0C9FC002C40F0AD80FB
S31508002C1008A938461AF0A8FB814600287FF4C0ABFD
S31508002C200898018946684B1E09B200291FFA83FBDA
S31508002C301AB240F3128116F801AB4C46B6E54FF0CE
S31508002C40010B6A4B8DF82CB00A9358E7082557E410
S31508002C50022555E44D4574D808980CF09FFC002DC4
S31508002C603FF4BEAD2C46002504F1FF3974E44C450B
S31508002C7064D808980CF092FC002C40F08F8008A9C4
S31508002C8038461AF071FB00287FF48AAB0898038946
S31508002C9046681AB203F1FF3B002A1FFA8BF30FFAB4
S31508002CA08BFB3FF79DAC0CF079FC08A938461AF067
S31508002CB05BFB00287FF474AB0898038946681AB250
S31508002CC003F1FF3B002A1FFA8BF30FFA8BFB3FF742
S31508002CD087AC062550E6012512E44FF0010B444B5C
S31508002CE08DF82CB00A930AE739464248FEF716FAD9
S31508002CF06FF00103029348E404223F4938482FF055
S31508002D00EDFF78B139463D48FEF708FA4FF0FF3334
S31508002D1002933AE4082504F1FF391DE4022504F17B
S31508002D20FF3919E4364803F025F8364803F022F847
S31508002D3039462D48FEF7F2F9FFF73ABB0625FFF7A5
S31508002D40DFBB2C460025FFF7DBBB0525FFF7D8BB05
S31508002D500425FFF7D5BB0325FFF7D2BB4FF0010BC0
S31508002D60294B8DF82CB00A93C9E6012504F1FF39E1
S31508002D70FFF7F2BB0CF012FC08A938461AF0F4FA71
S31508002D8000287FF40DAB089802894668531E12B2D4
S31508002D90002A1BB23FF791AB2546EDE5062504F15F
S31508002DA0FF39FFF7D9BB052504F1FF39FFF7D4BB77
S31508002DB0042504F1FF39FFF7CFBB032504F1FF39DA
S31508002DC0FFF7CABB049B114A0A93002304928DF8A5
S31508002DD02C301346ECE60CF0E1FBBCE50D1E0008B2
S31508002DE0909A0020D43F0308803F03080113000887
S31508002DF029120008AC3F0308683F0308983F0308F8
S31508002E00703F0308783F0308612000084122000844
S31508002E10090040004FF0020B634B8DF82CB00A9363
S31508002E206DE60CF0BBFB08A938461AF09DFA054674
S31508002E3000287FF4B5AA089802894668531E12B27C
S31508002E40002A1BB27FF798ADA946DAE44FF0010BCA
S31508002E50564B8DF82CB00A9351E60CF09FFB08A947
S31508002E6038461AF081FA814600287FF499AA08980C
S31508002E70018946684B1E09B200291FFA83FB1AB25C
S31508002E803FF7D9AE012577E54FF0030B484B8DF890
S31508002E902CB00A9333E60CF081FB08A938461AF0E1
S31508002EA063FA00287FF47CAA0898038946681AB250
S31508002EB003F1FF3B002A1FFA8BF30FFA8BFB3FF750
S31508002EC08FAB042558E54FF0020B3A4B8DF82CB022
S31508002ED00A9314E64FF0030B374B8DF82CB00A9380
S31508002EE00DE64FF0030B354B8DF82CB00A9306E62A
S31508002EF0334A344B12689A427FF408AD324B1B783A
S31508002F00652B7FF403AD4FF0010B304B8DF82CB0D9
S31508002F100A93F4E54FF0020B2D4B8DF82CB00A936B
S31508002F20EDE503F17E43264A03F57C03126803F6B2
S31508002F3006639A427FF4F0AC234B1B78782B7FF418
S31508002F40EBAC4FF0010B234B8DF82CB00A93D6E56A
S31508002F504FF0010B204B8DF82CB00A93CFE51F4B91
S31508002F604FF4AB621E491F4803F002FA484602F0C6
S31508002F7027FF24F0DFFD194B40F261521A49194820
S31508002F8003F0F6F9204602F01BFF24F0D3FD134B9D
S31508002F9040F25F521549134803F0EAF9029802F025
S31508002FA00FFF24F0C7FD00BF691100088D1C00083B
S31508002FB0AD1A0008F11800081117000831150008A5
S31508002FC0949A00206F6E616D989A0020ED20000893
S31508002FD0591400080D200008A11F0008503E0308D8
S31508002FE0803E03085C330308B03E0308943E03089A
S31508002FF000B5002383B001220449054800921A4609
S3150800300024F096FE03B05DF804FB00BF35230008E4
S31508003010C04003080022182030B5114687B019F0C1
S3150800302057FF0546072221491AF00CF8002D32D021
S315080030300024FF2128461AF0DFF803A928461AF0CB
S3150800304003F90028F9D104A903981AF005FAD8B9A2
S315080030500DF10A0205A9049819F072FD0123BDF8BD
S315080030600A200599039800941AF02AFB049819F087
S31508003070A5FD0028ECDA049819F0AAFC04A903981F
S315080030801AF0EAF90028E3D003981AF027FB039808
S3150800309019F07EFFD1E7064B39220649064803F0A8
S315080030A067F9284602F08CFE24F044FDDC85030807
S315080030B0C4420308F84203085C33030800B500233A
S315080030C083B001220449054800921A4624F030FECE
S315080030D003B05DF804FB00BF153000081043030871
S315080030E079B110B50C460021204604F0A3FE20460F
S315080030F0002104F0BFFE2046034904F09FFE00208D
S3150800310010BD0020704700BF0D31000870B5B3FA36
S3150800311083F40E46154664094AB144B10846118936
S3150800312004F0DAFD28460CF039FA002070BD28466E
S315080031300CF034FA002DF8D1002CF6D030460021D8
S3150800314004F078FE3046002104F094FE0021304653
S3150800315004F074FE304605F08DFD002070BD00BFFA
S3150800316010B52E2006F058F9044644F64F120649C3
S3150800317004F064FBFF21204604F06CFD0349BDE81A
S31508003180104004F0AFBE00BF90560308E1300008B7
S315080031902DE9F04F85B01F4600240DF10408DDE93E
S315080031A00F96C4462546013486460A2CB0FBF1F331
S315080031B001FB130B184612F80BB00CF801BB01D82B
S315080031C08E45EFD227B10E9BDB0748BF07F1FF37C5
S315080031D00E9B13EA090F01D02D20B047A7420BD941
S315080031E0B9F1000F14BF4FF0300A4FF0200A01342E
S315080031F05046B047A742FAD189F001090E9B19EA51
S31508003200030F01D02D20B047454401E015F801BD54
S315080032105846B047A845F9D105B0BDE8F08F00BFBC
S315080032202DE9F0470446054684B014F8010B00283A
S3150800323054D00F461646DFF830A1DFF83091DFF894
S31508003240308105E025460134B0472878002845D066
S315080032502528F7D16C78302C4BD002350021A4F103
S315080032603003092B4FF000030AD803EB830304EB62
S31508003270430315F8014BA4F13002303B092AF4D96F
S315080032806C2C08BF15F8014B782C23D8572C28D955
S31508003290583C202C1ED8DFE804F05B1D1D1D1D1DA3
S315080032A01D1D1D1D1D55111D1D1D1D1D1D1D1D1D14
S315080032B01D1D491D1D3C1D301D1D490057F8040BD9
S315080032C000284BDB0022CDE9011600920A2142466E
S315080032D0FFF75EFF6C1C28780028B9D104B0BDE85A
S315080032E0F087002C37D0252CF4D120466C1CB0472B
S315080032F0ABE7AC7801210335B1E7002457F8040B96
S31508003300424600946C1CCDE901160A21FFF740FFDE
S315080033109BE757F8044B14F8010B0028DAD0B0479E
S31508003320207801340028FAD16C1CD4E700244A46D8
S3150800333057F8040B00946C1CCDE901161021FFF711
S3150800334027FF82E757F8040B6C1CC0B2B0477CE72E
S3150800335000245246ECE72C46013D76E7012240421E
S31508003360CDE90116B1E700BF5843030878430308BF
S315080033706C43030803680A46012B07D0022B04D1C5
S3150800338000F108010448FFF74BBF704700F10C0134
S315080033908068FFF745BF00BF2043030810B50C46F9
S315080033A082B00346044801A922460193FFF738FF75
S315080033B00A20A04702B010BD404303080EB470B5FA
S315080033C08BB001240FAB029453F8041B1D460A78F0
S315080033D004910193052C8CBF0023012332B12BB134
S315080033E0252A0BD011F8012F002AF8D102A925F0B9
S315080033F0AFF90BB0BDE8704003B070474A788B1C34
S31508003400A2F13001092905D813F8012BA2F13001E0
S315080034100929F9D96C2A26D0002A00F08380583A5F
S31508003420D1B220297BD8202A79D8DFE802F06D7836
S31508003430787878787878787878116D787878787870
S3150800344078787878787811787811786D78786D004A
S3150800345019460AAB55F8046B0A7803EB8403013462
S3150800346043F8186CB6E7194611F8012B002A5FD005
S31508003470583AD6B2202E59D8202A57D801A656F837
S3150800348022F000BF0B3500082D3500082D35000841
S315080034902D3500082D3500082D3500082D35000876
S315080034A02D3500082D3500082D3500082D35000866
S315080034B0533400080B3500082D3500082D35000853
S315080034C02D3500082D3500082D3500082D35000846
S315080034D02D3500082D3500082D3500082D35000836
S315080034E02D350008533400082D3500082D35000801
S315080034F0533400082D3500080B3500082D35000813
S315080035002D3500080B35000819460AAB55F8046B2B
S315080035100A7803EB8403013443F8186C5AE71A78DF
S31508003520194657E7591E13F8012C53E75A7851E7FD
S3150800353019464FE72DE9F04188B080460D461646F4
S315080035400E9C1F462046241200F014F8084A8446AA
S315080035500123694640460597069607950292009309
S31508003560CDE903C425F0F4F808B0BDE8F08100BF42
S315080035708C4303083A30C0B23A2803D8024B53F8B2
S3150800358020007047014870477C440308BC43030881
S31508003590F8B51D4B06461D4D0F461C6844F00064E1
S315080035A01C602B6823F080532B602B6898000AD583
S315080035B0174C01E0013C24D04FF47A7029F0DEFE66
S315080035C02B689A00F6D41349104D0C6804F0FE4493
S315080035D044EA074242EA86120A602B6843F080539F
S315080035E02B602B6899000AD4094C01E0013C08D0ED
S315080035F04FF47A7029F0C2FE2B689B00F6D500209E
S31508003600F8BD6FF03100F8BD90380240003802402E
S31508003610A18601008838024070B5874D82B02B68B4
S3150800362023F480232B602B6823F480332B602B68CC
S315080036309A030BD5814C02E0013C00F0C5804FF49B
S315080036407A7029F09BFE2B689E03F5D47A4D2B6879
S3150800365023F480332B602B6843F480232B602B687C
S3150800366043F480332B602B689B030BD4734C02E026
S31508003670013C00F0A9804FF47A7029F07FFE2B6890
S315080036809803F5D56C4D2B6823F080732B602B6857
S315080036909C010BD56A4C02E0013C00F095804FF482
S315080036A07A7029F06BFE2B689A01F5D4624D654B4A
S315080036B0654A1A602B6843F080732B602B68990162
S315080036C00AD45F4C01E0013C7ED04FF47A7029F0B1
S315080036D055FE2B689E01F6D55C4B5D491A685D4D13
S315080036E042F080521A601B6803F080530193019BD5
S315080036F00B6843F480330B602B68DB030AD4564C03
S3150800370001E0013C60D04FF47A7029F037FE2B684F
S31508003710D803F6D54E4A4F4D136843F40033136069
S315080037202C6814F4003440F085804B4E01E0B44216
S315080037304AD04FF47A70013429F020FE2B68990399
S31508003740F5D503214FF4C070FFF722FF434A1368EB
S3150800375003F00F03062B3BD9414D37492A6822F05F
S31508003760F0022A600A68930161D52A6802F00C0201
S31508003770082A0DD0314E01E0B44225D04FF47A70B4
S31508003780013429F0FBFD2B6803F00C03082BF3D159
S31508003790324A136823F00F0343F0070313601368D4
S315080037A003F00F03072B42D12D4A0020136823F498
S315080037B0E05343F4A0531360136823F4604343F4BF
S315080037C00043136002B070BD6FF0310002B070BDE7
S315080037D0136823F00F0343F007031360136803F01D
S315080037E00F03072B00D0FEE71D4D13492A6822F068
S315080037F0F0022A600A68920119D52A6822F00302A3
S3150800380042F002022A602A6802F00C02082ACBD08B
S315080038100A4E01E0B442D7D04FF47A70013429F049
S31508003820ADFD2B6803F00C03082BF3D1BCE76FF052
S315080038300400CBE7002484E700380240414B4C00E3
S31508003840A186010004380240086C407940380240DD
S31508003850007000400470004041420F00003C0240E6
S31508003860083802405E4B4FF0010C00225D4819688B
S315080038702DE9F04141EA0C015B4E5C4C02271960C8
S315080038804FF0050E326082B01968594D0840594903
S31508003890DFF8AC81186025601C68574824F480243A
S315080038A0564D1C6072600B68554C23F480330B60D0
S315080038B00668544B26F0010606602A60C4F80080A4
S315080038C008F16348504E08F12508C3F80080C5F88A
S315080038D000C0DFF870C12660C3F800C02F604B4DEA
S315080038E026601D60C0F800E00B6843F480330B6067
S315080038F0BFF34F8FBFF36F8F454B10391A600B68B4
S3150800390043F400330B60BFF34F8FBFF36F8F414B08
S315080039100A671D68C5F3C90705F00706C5F34E35DE
S31508003920B7FA87F0043600F01F00BFF34F8F04F58F
S31508003930E27405FA06F13B4603FA00F2013B0A4334
S3150800394022605A1CF8D1013DF3D2BFF34F8F324A99
S31508003950136843F480331360BFF34F8FBFF36F8F41
S315080039602E494FF6FF042E4B00200A6822401343C7
S315080039700B60FFF751FE10B902B0BDE8F081294B84
S315080039800022294C022601921A68284842F48072BD
S315080039902749284D1A601B68274A0193019B23680B
S315080039A023F00C0343F0040323600368234C43F01D
S315080039B00C0303600B6823F002030B60136823F003
S315080039C00C0343F00403136020462E6029F0D6FC4E
S315080039D04FF4003320462B6029F0D0FCF4E700BFF3
S315080039E000380240FFFFF6FE08380240043802405D
S315080039F01030002424ED00E094ED00E098ED00E09E
S31508003A009CED00E0A0ED00E0008007201100050312
S31508003A1050EF00E080ED00E014ED00E00CED00E072
S31508003A200003FA0530380240002002400820024010
S31508003A3004200240182002400C20024000C2EB0B72
S31508003A40000002201D000C0338B540B20D4629F0CF
S31508003A50F3FC20201C2429F0EFFC45FA04F3043C6F
S31508003A6003F00F03092B03F13000C8BF03F1370039
S31508003A7029F0E2FC231DF0D10A20BDE8384029F0E0
S31508003A80DBBC00BF084800220849094B30B400F1E6
S31508003A900C0501F17004DA601D615C61DA6130BC05
S31508003AA0C3E90001704700BF94460308B4450308FC
S31508003AB00C7901202DE9F04F00F1FF39924C8BB0BB
S31508003AC004EB09154FEA09196B68A9601A6A996C1B
S31508003AD054F80980D5F80CB0002A00F0DF800029D8
S31508003AE000F0DC80D8F800404FF0FF3727622768DF
S31508003AF027F001072760D8F80870002F40F0D28019
S31508003B00824F386800F0020040F0010038601F68F4
S31508003B104FF00F0A5E683868DFF804C23043386031
S31508003B20D3E902E0DEF800703843CEF80000D3F897
S31508003B3008E01869DEF800703843CEF80000176808
S31508003B40D3E90A603740384310609768D3E90C60B8
S31508003B503740384390605768D3E90E60374038439A
S31508003B605060D768D3E9106037403843D0600F6893
S31508003B70D3E914603740384308608F68D3E9166084
S31508003B803740384388604F68D3E918603740384370
S31508003B904860D768D3E91A6037403843C86093F855
S31508003BA024004FEAD00E00F007000EF1080E800040
S31508003BB052F82E700AFA00F6019027EA0607187FCF
S31508003BC0019EB040074342F82E7093F84C001F7FC1
S31508003BD0C20800F0070308329B0051F822000AFACF
S31508003BE003FE9F4020EA0E033B4341F822306368F8
S31508003BF023F440536360236803EA0C0C4CF00C036F
S31508003C002360A36823F43063A360404BD8F80820E8
S31508003C101B68D34003F00303013B022B50D83C49F1
S31508003C203C4A51F82330A2FB03231B0CE360A2464F
S31508003C30636823F490436360A36823F02A03A360B0
S31508003C40236843F001034AF81C3BE36903F4C00305
S31508003C50B3F5C00F0FD06FF07E4701E0013F4AD0A1
S31508003C604FF47A7029F08AFBDAF8003003F4C003BF
S31508003C70B3F5C00FF2D12368234A43F4807302EBED
S31508003C80090601222360A3681343A360236843F04F
S31508003C9020032360F260BBF1000F18D028460BB052
S31508003CA0BDE8F08F0A2F7FF432AF01287FF42FAFDB
S31508003CB0164F386800F4006040F48060386026E7E4
S31508003CC00A2A40F2A93318BF4FF4EA73AEE7D8F8C8
S31508003CD004002DF0C3FE0028E0D002210E4C40F26D
S31508003CE09B120E4B0291584602A90693CDE904424F
S31508003CF024F02EFDD2E7236823F4D0732360A3684B
S31508003D0023F00103A360C9E70C790120903802402B
S31508003D10A8450308C5B3A291684503089845030852
S31508003D20F369FFEF38B5C3680446CBB923684FF08B
S31508003D30FF30616800221B681862186820F00100CD
S31508003D4018601A605A609A60D1E905502B681843C2
S31508003D502860D1E9051023EA00030B60E26038BD4C
S31508003D60036858682DF016FEE0E700BF0138012801
S31508003D7047D8F8B52B4C050104EB0010C36803B906
S31508003D80F8BD63591A6810689168D369DF0729D5A1
S31508003D90CE0727D502F120074FF0010C13F0020FCA
S31508003DA03E46C2F820C035D0022737605F071FD5C8
S31508003DB0042232601A0721D4800605D5990603D550
S31508003DC06319986825F098F863591B681A68DB69BF
S31508003DD01206D5D51F06D3D52C44A068BDE8F840F1
S31508003DE025F054B89F070DD5CE0717D45E07E3D440
S31508003DF01F07E1D5CE07DFD502F12006082232607B
S31508003E00DAE770475E07F3D5C907D5D502F120076B
S31508003E103E46CDE75E07EBD53E46C9E702F12006EA
S31508003E20C2E700BF0C79012003681B681868DA69C5
S31508003E3010F0800002D012F0800000D170470120F7
S31508003E409962704703681B6818689968DA6970B4DC
S31508003E50D50718D5CC0716D5012603F120051E620D
S31508003E6096072C462DD502252560550719D4150722
S31508003E7001D5CC0720D4810601D5960618D44FF073
S31508003E80FF3070BC7047940704D5CE071DD455077C
S31508003E90F1D4ECE75407EAD5C907ECD503F12005B8
S31508003EA02C46042116072160E5D508212160E2E7A2
S31508003EB0586A70BCC0B2704703F12004082121601B
S31508003EC0D9E75407D3D52C46EBE7022503F120049E
S31508003ED025605507E5D4CAE7036801291B6807D09A
S31508003EE0022904D11A6842F020021A607047704706
S31508003EF01A6842F080021A60704700BF03680129F9
S31508003F001B6807D0022904D11A6822F020021A6019
S31508003F10704770471A6822F080021A60704700BF1F
S31508003F2001390B4B82B001EB410153F8213003F103
S31508003F301C02986213681B06FCD540F62C230193D5
S31508003F40019B5A1E0192002BFAD102B0704700BF9E
S31508003F50944603080138704A2DE9F04F00EB4006F5
S31508003F606E4DC0EBC001002452F8263002EB8602E3
S31508003F7005EB0111D3F800C0C6004F692CF0010CFF
S31508003F80D1F81880D2F808E0C3F800C01C605C605D
S31508003F909C603C680A6A48EA040C24EA0804896CAE
S31508003FA0C7F800C03C60BEF1000F40F0A1805C4F2E
S31508003FB03C6804F0020444F001043C60301A4FF0F7
S31508003FC00F0C060105EB001055F806804568D8F871
S31508003FD0006087683543C668046CC8F800503D68B9
S31508003FE02E433E603D68066935433D60856A16681E
S31508003FF006EA0508C56A466B48EA05051560056BB5
S3150800400097682F40856B3E43C76B96605668354068
S31508004010466C3D43076D5560D56805EA0408456D4D
S3150800402048EA0606DFF8F880D6600E6837403D4352
S315080040300D608F68D0E91656446E3D40076E2E43D4
S315080040408E604D6890F824602F40C56E4FEAD609F9
S3150800405006F007062743846E09F10809B6004F6083
S31508004060D7680CFA06FA27403D43077FCD6007FA62
S3150800407006F652F829B090F84C502BEA0A0AE808D6
S3150800408005F007054AEA06060830AD0042F8296039
S315080040900CFA05FC51F8202007FA05F522EA0C026D
S315080040A02A4341F820205A681E4922F440525A6091
S315080040B01A68114041F00C041C609A6822F43062B8
S315080040C09A60D8F8002022FA0EF202F00302013AAA
S315080040D0022A19D81448154950F82220A1FB0212C1
S315080040E0120CDA601A6842F001021A60BDE8F08F15
S315080040F0BEF10A0F7FF462AF094F3C6804F400640E
S3150800410044F480643C6059E7BEF10A0F40F2A932D4
S3150800411018BF4FF4EA72E4E794460308B445030867
S3150800412090380240F369FFEFA8450308C5B3A2918A
S31508004130F8B5EFF314839C0724D4214D2C680CBBE7
S31508004140002839DD1F4B1B68834235DB0138EFF346
S3150800415011835A1E0F2A02D9102282F311881A4E89
S31508004160012733602F60194B00EB800003EBC0007A
S31508004170037B5BB1D90712D45A0718D443F004035A
S31508004180037305E06FF018042046F8BD6FF02804A5
S3150800419000232B60336883F311882046F8BD042377
S315080041A0037329F0A1FB28B1094B1F60F0E76FF0F4
S315080041B02A04EDE70446EBE76FF01104E4E700BFD5
S315080041C0F0CE022098E40308ECCE0220FCCC0220B4
S315080041D0F8CE0220EFF314839B073DD5F0B5384C93
S315080041E02268002A69D100283ADD364B1B688342CB
S315080041F048DB431E344803EB830300EBC303EFF3AA
S315080042001180451E0F2D02D9102585F311882F4FD1
S315080042104FF0010C3860C4F800C000209D68486063
S31508004220987BD5E904E660444E618860C1F818E0D9
S31508004230187BC60718D52648006898422BD0022056
S315080042400860586A1B6AC1E90303002323603B68B8
S3150800425083F311881046F0BD6FF0180210467047B8
S3150800426010D11B4B1B68CAE786070FD510F0040F41
S315080042700CBF04250C2510F078000D6012D1022021
S315080042804860DEE76FF011021046F0BD400705D51D
S3150800429008200860D5E7C1F800C0D2E7A86810254D
S315080042A00D60CFE7082805D010280CBF2020402035
S315080042B04860C6E7C1F804C0C3E76FF01802C9E74B
S315080042C0F0CE022098E40308FCCC0220ECCE0220B3
S315080042D090CF02200A490A68072A06D8094B03EB39
S315080042E0C203094A12682AB17047074A074B12687F
S315080042F0002AF9D158680A6002305860704700BF32
S31508004300BC9E0020E49E0020F4CE0220249F0020BC
S3150800431070B4224B224C234D1A6823682E6802EB90
S315080043208202214975014FEA4202A1EB0303246880
S315080043302BD5091B15468B4227D803EB83031B4C49
S315080043401B4AC3F359132168A2FB0323072905EB6C
S3150800435053131DD8174A02EBC102174E5168356828
S315080043605D1B29445160A8B11449154A401A114DDC
S315080043703360C01002FB00F2013255F83210226099
S31508004380013145F8321070BC7047A2F10A05D4E72E
S315080043900C4AE2E72060336070BC7047A0CF022069
S315080043A018E000E004ED00E0C04B0300BC9E0020CE
S315080043B0DD606D02E49E0020B89E0020FCCC022041
S315080043C0CDCCCCCC249F00202DE9F84304460430FC
S315080043D02CF0ACFEEFF311835A1E0F2A02D91022D5
S315080043E082F31188DFF8A0800122DFF8A090C8F8D0
S315080043F00030C9F80020214B21491A68D1F800C0BD
S315080044002260BCF1000F62681A6034DB00231D4A83
S3150800441004F1080E1D460EE01E46013352F8040C40
S315080044201168092B87E8030042F8045C42F8085B28
S3150800443017D0634515DC052B0EEBC3074FF00506B1
S31508004440EADD52F8047C013320696169092B384496
S3150800445017683944C4E9040142F8045C42F8085B69
S31508004460E7D10023C9F80030D8F8003083F3118863
S315080044703046BDE8F8830026F3E700BFC09E00205B
S3150800448098E40308E89E0020ECCE0220F0CE022035
S31508004490032803D8024B03EBC0007047002070477F
S315080044A0C49E0020264B8C46F0B5054689B003F11C
S315080044B0200617185C68AC4203D3BC4201D21878B0
S315080044C020B908339E42F5D109B0F0BD1D4B1C68D2
S315080044D0EFF314839B071ED51B4B1B68DBB11B4EE2
S315080044E0022A1B49A3EB06034FEAE30301FB03F386
S315080044F003F101031DD0042A69464FF00102039413
S31508004500049314D1134B00920293CDE9055C24F071
S315080045101FF909B0F0BD01220F4B694603940092BA
S315080045200293CDE9045C24F013F909B0F0BD0B4BF6
S31508004530E9E7049301226946094B0394E3E700BFC0
S31508004540C49E0020A0CF022090CF0220FCCC0220DF
S31508004550CDCCCCCCE4460308AC4603085447030844
S315080045601C470308264B8C46F0B5054689B003F16F
S31508004570200617185C68AC4203D3BC4201D21878EF
S3150800458020B908339E42F5D109B0F0BD1D4B1C6811
S31508004590EFF314839B071ED51B4B1B68DBB11B4E21
S315080045A0022A1B49A3EB06034FEAE30301FB03F3C5
S315080045B003F101031DD0042A69464FF00102039452
S315080045C0049314D1134B00920293CDE9055C24F0B1
S315080045D0BFF809B0F0BD01220F4B6946039400925B
S315080045E00293CDE9045C24F0B3F809B0F0BD0B4B97
S315080045F0E9E7049301226946094B0394E3E700BF00
S31508004600C49E0020A0CF022090CF0220FCCC02201E
S31508004610CDCCCCCCC44703088C47030834480308E0
S31508004620FC47030810B50E4C82B02068022810D04B
S315080046302AF02EFC21680191FEF79CFF019902469B
S31508004640084801F095FE64202AF0D8FB002002B045
S3150800465010BD054801F08EFB002002B010BD00BF5A
S315080046602C9F00208C4803086C48030810B50E4C94
S3150800467082B02068022810D02AF012FD2168019124
S31508004680FEF778FF01990246084801F071FE64209A
S315080046902AF0B4FB002002B010BD054801F06AFB01
S315080046A0002002B010BD00BF2C9F0020B4480308AC
S315080046B06C48030810B50E4C82B02068022810D04A
S315080046C02AF0EEFD21680191FEF754FF0199024692
S315080046D0084801F04DFE64202AF090FB002002B045
S315080046E010BD054801F046FB002002B010BD00BF12
S315080046F02C9F0020DC4803086C48030810B50E4CB4
S3150800470082B02068022810D02AF060FD2168019145
S31508004710FEF730FF01990246084801F029FE642099
S315080047202AF06CFB002002B010BD054801F022FB00
S31508004730002002B010BD00BF2C9F002004490308CA
S315080047406C48030810B50E4C82B02068022810D0B9
S3150800475029F0F0FF21680191FEF70CFF0199024646
S31508004760084801F005FE64202AF048FB002002B044
S3150800477010BD054801F0FEFA002002B010BD00BFCA
S315080047802C9F00202C4903086C48030810B50E4CD2
S3150800479082B02068022810D029F060FE21680191B5
S315080047A0FEF7E8FE01990246084801F0E1FD64209B
S315080047B02AF024FB002002B010BD054801F0DAFA01
S315080047C0002002B010BD00BF2C9F002054490308EA
S315080047D06C480308F0B40139451E0AE0192F98BF42
S315080047E05FFA8CF3192E98BFC4B29C4216D1012ADF
S315080047F011D015F8014FA4F16106A4F1200054B1B7
S3150800480011F8013F13F0DF0FA3F16107A3F1200CA4
S3150800481001D02C2BE2D10120F0BC70470020F0BC5F
S31508004820704700BFF8B50026194C05460F4600220A
S31508004830954223DD39680B781BB1A068FFF7CAFFDC
S3150800484000BB01361834052EF1D1124B1C684CB941
S3150800485011E039680B781BB1A068FFF7BBFF88B970
S31508004860246844B100229542F3DC206901F080FDFA
S315080048702468002CF6D100263046F8BD206901F0E0
S3150800488077FDDEE7206901F073FD3046F8BD00BF0D
S315080048900851030814A000202DE9F8430023194EF7
S315080048A08046194F1D46DFF864900360306801F0B2
S315080048B02BFAC4B21F2C0CD9C72D204609DC01F0EF
S315080048C075FA30687C5501F01FFAC4B201351F2C01
S315080048D0F2D8082C0ED07F2C0CD00A2C03D00D2C25
S315080048E001D0012CE2D1002320467B55C8F80050A0
S315080048F0BDE8F8834846002DEFD0013D01F038FDAC
S31508004900EBE700BF04A00020349F0020604D030899
S31508004910F0B5274F83B03A68022A42D001280EDD47
S315080049204E68337813F0DF0F09D003F0FD012C2908
S3150800493005D0A3F10905B5FA85F56D095DB14FF006
S31508004940FF3003B0F0BDDCB205EB850516F8013F74
S3150800495004EB45058BB1A3F13004A3F14101E4B2A0
S31508004960092CF1D9A3F157041929A3F16100A3F180
S315080049703703E4B2E7D91928E6D91046294629F0BB
S315080049809BFF39680191FEF7F5FD2A460346019912
S31508004990084801F0EDFC64202AF030FA002003B044
S315080049A0F0BD054801F0E6F9002003B0F0BD00BFF0
S315080049B02C9F00207C4903086C4803080128F8B599
S315080049C029DC414C2368022851DC404D2968072B15
S315080049D04FF001008CBF23682360072903F1010308
S315080049E08CBF29682960013100FA01F19840013924
S315080049F0013823F087FF2A682368354902EB42020B
S31508004A0003EB4303334801EB820201EB830101F018
S31508004A10AFFC0020F8BD4D682C7814F0DF0FD0D01D
S31508004A2004F0FD032C2BCCD0A4F10903B3FA83F3CD
S31508004A305B0943B1C5E7E2B203EB830315F8014FFF
S31508004A4002EB43038CB1A4F13002A4F14106D2B2C1
S31508004A50092AF1D9A4F15702192EA4F16107A4F184
S31508004A603704D2B2E7D9192FE6D9174CABE78D68C8
S31508004A70287810F0DF0FA8D000F0FD022C2AA4D069
S31508004A80A0F10901B1FA81F1490941B19DE7C2B224
S31508004A9001EB810115F8010F02EB410188B1A0F184
S31508004AA03002A0F14106D2B2092AF1D9A0F1570283
S31508004AB0192EA0F16107A0F13700D2B2E7D9192F54
S31508004AC0E6D9024D83E700BF08A000200CA000200D
S31508004AD0704F0308A849030801282DE9F84325DC87
S31508004AE000240326DFF87C91DFF87C815C4F07E021
S31508004AF0013408EB82025B6801F03AFCB44212D832
S31508004B002046FFF7C5FC0346214638465BB11D78AB
S31508004B1005EB4502002DEBD1013448465A6801F0F1
S31508004B2027FCB442ECD90020BDE8F883054648685E
S31508004B300F46027812F0DF0438D002F0FD032C2B62
S31508004B40CED0A2F10906B6FA86F6760946B1C7E7C7
S31508004B50D3B206EB860610F8012F03EB46068AB198
S31508004B60A2F13003A2F14101DBB2092BF1D9A2F17E
S31508004B7057031929A2F16104A2F13702DBB2E7D97A
S31508004B80192CE6D93046FFF783FC60B1022D0FD108
S31508004B900278072A28BF0022032D027036DC4168F6
S31508004BA0344641609EE7032EBDD83446032699E76E
S31508004BB0BC68217811F0DF0FEAD001F0FD032C2B39
S31508004BC0E6D0A1F10902B2FA82F252094AB1DFE748
S31508004BD0CBB202EB820214F8011F03EB4202002952
S31508004BE0D7D0A1F13003A1F1410CDBB2092BF0D9E2
S31508004BF0A1F15703BCF1190FA1F1610EA1F137011B
S31508004C00DBB2E5D9BEF1190FE3D9C2E73C692278D0
S31508004C1012F0DF0FC3D002F0FD032C2BBFD0A2F198
S31508004C200901B1FA81F1490939B1B8E7D3B214F8E3
S31508004C30012F03EB0111002AB2D0A2F13003A2F131
S31508004C404105DBB2092BF2D9A2F15703192DA2F1BE
S31508004C506107A2F13702DBB2E8D9192FE7D99FE736
S31508004C60C8490308E0490308704F03082DE9F04FC7
S31508004C70072389B0061E0F46079316DD0D68002424
S31508004C80B04895F80080DFF8DC9201E059F8340066
S31508004C9000222946B8F1000F04D0FFF79BFD002833
S31508004CA040F00E810134072CF0D1A74D95F800B0DD
S31508004CB0012E40DCDFF8CCA2DAF8000024F0A8FACE
S31508004CC0A24F0446A24EDFF8C092DFF8C08285F8EC
S31508004CD000B02146304601F04BFB2A78022A60D004
S31508004CE0042A53D001220DF11501204624F092FA28
S31508004CF0002800F0C5809DF81510404601F038FBE5
S31508004D0007A8FFF7C9FD3B7813F0DF0F0AD003F0B9
S31508004D10FD022C2A06D0A3F10901B1FA81F149094D
S31508004D2000294BD00A2001F041F8CAF800400020BB
S31508004D3009B0BDE8F08F79680A7812F0DF0FB9D0AC
S31508004D4002F0FD032C2BB5D0A2F10900B0FA80F0D1
S31508004D50400930B1AEE7D3B211F8012F03EB0010CA
S31508004D608AB1A2F13003A2F14104DBB2092BF3D9CF
S31508004D70A2F15703192CA2F16106A2F13702DBB2A0
S31508004D80E9D9192EE8D9DFF8FCA197E706A9204644
S31508004D9024F040FA002878D006996E4801F0E8FA1F
S31508004DA0AEE70DF11601204624F034FA002871D03A
S31508004DB0BDF81610484601F0DBFAA1E7634805E09E
S31508004DC0DAB210F8013F02EB01119BB1A3F13002F0
S31508004DD0A3F1410CD2B2092AF3D9A3F15702BCF1C7
S31508004DE0190FA3F1610EA3F13703D2B2E8D9BEF1C8
S31508004DF0190FE6D995F800B0BBF1020F1AD0BBF12E
S31508004E00040F2CD001228DF8151020460DF115013E
S31508004E1024F044FA0DF115010122204624F0FAF98E
S31508004E2000283DD09DF815104B4801F0A1FA2B78C3
S31508004E301C444EE75A46ADF8161020460DF11601E9
S31508004E4024F02CFA5A460DF11601204624F0E2F910
S31508004E5058B3BDF81610414801F08AFAE7E75A46F2
S31508004E600691204606A924F019FA5A4606A92046AC
S31508004E7024F0D0F9F8B10699394801F079FAD6E75D
S31508004E80FF2319468DF8153037E74FF0FF331946DB
S31508004E90069382E74FF6FF731946ADF8163089E791
S31508004EA0FF2319468DF81530BEE74FF6FF731946EE
S31508004EB0ADF81630CFE74FF0FF3319460693DBE718
S31508004EC0284B03EBC40494F804B00BF1FF33062B0C
S31508004ED03FF6EBAEDFE803F004041C04130C0600EF
S31508004EE0194DE5E6012E1CD11F4B204A1A601EE714
S31508004EF0012E40F0C8801E4B02221A6017E7012EC9
S31508004F0067D11C4B1D6829461B4801F031FA0EE78C
S31508004F10012E40F0F080194B1968194801F028FA5B
S31508004F2005E77868027812F0DF0FDDD002F0FD039E
S31508004F302C2BD9D0A2F10901B1FA81F1490979B32B
S31508004F40D2E700BF004A0308FD9F0020349F0020D7
S31508004F50084A0308184A03083C4A03082C4A030867
S31508004F60344A03080050030804A0002030790120C1
S31508004F702C9F00202C790120204B030810A000202C
S31508004F80604A0308309F0020104A0308244A030891
S31508004F90D3B201EB810110F8012F03EB41018AB16D
S31508004FA0A2F13003A2F14104DBB2092BF1D9A2F137
S31508004FB05703192CA2F16105A2F13702DBB2E7D932
S31508004FC0192DE6D9012940F0CE80784B784A1A6027
S31508004FD0ADE679680A7812F0DF0F92D002F0FD0389
S31508004FE02C2B8ED0A2F10904B4FA84F4640944B1D6
S31508004FF087E7D3B204EB840411F8012F03EB4404CA
S315080050008AB1A2F13003A2F14100DBB2092BF1D932
S31508005010A2F157031928A2F16105A2F13702DBB202
S31508005020E7D9192DE6D9002C3FF46BAF614E25461A
S315080050303068A0423FF467AF5F4F3B68984207D09D
S31508005040012805D023F050FD0028C0F29C803B685B
S31508005050012C346008D09C4206D0204623F0F4FC8C
S315080050600028C0F29980356828464FF4A26123F0DB
S31508005070C5FE00287EDB0023022201214F4801F0ED
S3150800508077F935683FE77868027812F0DF0F3FF462
S3150800509032AF02F0FD032C2B3FF42DAFA2F109012C
S315080050A0B1FA81F1490941B125E7D3B201EB810192
S315080050B010F8012F03EB41018AB1A2F13003A2F1E6
S315080050C04104DBB2092BF1D9A2F15703192CA2F13D
S315080050D06105A2F13702DBB2E7D9192DE6D9002915
S315080050E03FF409AF364B1B6801338B427FF603AF9B
S315080050F0344B19601BE67868027812F0DF0F3FF42C
S315080051000AAF02F0FD032C2B3FF405AFA2F109010B
S31508005110B1FA81F1490941B1FDE6D3B201EB81014A
S3150800512010F8012F03EB41018AB1A2F13003A2F175
S315080051304104DBB2092BF1D9A2F15703192CA2F1CC
S315080051406105A2F13702DBB2E7D9192DE6D94B1E64
S31508005150012B3FF6E0AE1C48039101F009F91B4B01
S3150800516003991960D9E602297FF4BEAE0F4B184A97
S315080051701A60DCE5009040F29222164B032016498D
S31508005180FEF7D8F977E7009040F28E22134B0320FA
S315080051901149FEF7CFF95AE7009040F29122104BD9
S315080051A003200D49FEF7C6F95DE700BF04A00020FD
S315080051B0507901202C79012000A00020644D0308B5
S315080051C098E403082C9F0020444A030810A00020F6
S315080051D070790120D84A0308A04A0308844A0308BC
S315080051E0BC4A03082DE9F04FDFF804C34FF0010E5F
S315080051F0A74F05220021A74DA74E70458CF800E061
S31508005200A1B0A64CDFF8ECC238604FF002072A605E
S315080052103160A34AA34920601760CCF8001040F01B
S315080052200F819E4800F000FE0023022201219E48BD
S3150800523001F09EF8012331682A6819441A4403FAD2
S3150800524001F193400139581E23F05CFB0028C0F297
S31508005250108120684FF4A26123F0D0FD0028C0F227
S31508005260FF808F4B1C68022C00F0E08008A92046BE
S3150800527029F050FC089B012B00F0DC80022B00F083
S31508005280DB80042B00F0DA80082B00F0E780874AE1
S3150800529002F10B01102B08BF0A462146844801F08B
S315080052A067F83E20002400F081FD002000F088FD0C
S315080052B007A8FFF7F1FA2746079D22467D4B04907B
S315080052C00EE020A901EB870114B9013741F8403CEB
S315080052D0102F04F1010402F1010203F1010312D0B7
S315080052E0954240F398801978202901D00929E8D1F8
S315080052F04FF00001102F4FF0000402F1010219705F
S3150800530003F10103ECD16B4B4FF000010A209954CD
S3150800531000F04CFD109A684B117807EE902AD3F8E6
S3150800532000B091460391039BDDF844806348DFF89B
S31508005330C8A1059723B15A464946FFF74BFA78B9EB
S315080053400AF1180A5E4B9A4536D0039BDAF808002C
S31508005350002BF5D05A464946FFF73CFA0028EFD00D
S31508005360DAF80460002E00F08D80DAF81450E7DDD4
S3150800537098F80070002403E0A64205F10805DFD07E
S3150800538001345A464146002FF6D02868FFF722FA1C
S315080053900028F1D0059F6B68781E11A99847002050
S315080053A000F00EFD049B012B7FF45BAF454800F02F
S315080053B0E1FC21B0BDE8F08F434A1668002EEED016
S315080053C0DA4617EE90BA02E03668002EE7D0039B5D
S315080053D0002BF9D052465946B068FFF7FBF900286A
S315080053E0F2D077687569002FEEDD98F800903B4695
S315080053F000244F46994603E04C4505F10805E3D0DD
S31508005400013452464146002FF6D02868FFF7E2F9E4
S315080054100028F1D0BEE7274B4FF000010A20995427
S3150800542000F0C4FC002F7FF475AFB8E7274800F0FA
S315080054309FFF36E7264A30E7264A2EE7264A2CE714
S3150800544023F002FB0028BFF6ECAE00904FF49272F0
S31508005450224B03202249FEF76DF8E2E6214A1CE7B3
S3150800546000904FF49A72204B03201D49FEF762F80C
S31508005470F7E6009040F233121C4B03201849FEF75A
S3150800548059F8E6E6DAF80C30059F002B84D186E752
S3150800549000A0002008A000200CA000202C790120E4
S315080054A02C9F002030790120644D0308F052030830
S315080054B0884B0308349F002010A000203C4B0308AB
S315080054C080510308944B030814A00020844B03085A
S315080054D0C4520308CF520308DA520308BC4A030829
S315080054E0A04A0308E5520308D84A0308444B0308B0
S315080054F0FD9F002004A00020085103080A4A01461F
S31508005500136840B1002008601BB909E0186828B183
