S01900006170705F696F746875625F636C69656E742E7372656302
S31508000000B8AF0020010200085D6803085D680308B0
S315080000105D6803085D6803085D6803085D68030892
S315080000205D6803085D6803085D680308D769030807
S315080000305D6803085D6803085D680308DB680308F4
S31508000040DB680308DB680308DB680308DB6803086A
S31508000050DB680308DB680308DB680308DB6803085A
S31508000060DB680308DB680308DB680308DB6803084A
S31508000070DB680308DB680308DB680308DB6803083A
S31508000080DB680308DB680308DB680308DB6803082A
S31508000090DB680308DB680308DB680308DB6803081A
S315080000A0DB680308DB680308DB680308DB6803080A
S315080000B0DB680308DB680308DB680308DB680308FA
S315080000C0DB680308DB680308DB680308DB680308EA
S315080000D0DB680308DB680308DB680308DB680308DA
S315080000E0DB680308DB680308DB680308DB680308CA
S315080000F0DB680308DB680308DB680308DB680308BA
S31508000100DB680308DB680308DB680308DB680308A9
S31508000110DB680308DB680308DB680308DB68030899
S31508000120DB680308DB680308DB680308DB68030889
S31508000130DB680308DB680308DB680308DB68030879
S31508000140DB680308DB680308DB680308DB68030869
S31508000150DB680308DB680308DB680308DB68030859
S31508000160DB680308DB680308DB680308DB68030849
S31508000170DB680308DB680308DB680308DB68030839
S31508000180DB680308DB680308DB680308DB68030829
S31508000190DB680308DB680308DB680308DB68030819
S315080001A0DB680308DB680308DB680308DB68030809
S315080001B0DB680308DB680308DB680308DB680308F9
S315080001C0DB680308DB680308DB680308DB680308E9
S315080001D0DB680308DB680308DB680308DB680308D9
S315080001E0DB680308DB680308DB680308DB680308C9
S315080001F0DB680308DB680308000000000000000055
S3150800020071B64FF0000080F31488BFF36F8F18485B
S31508000210016881F3088817484FF47001026842EABA
S31508000220010202604FF0404013490860134800B1CC
S3150800023080474FF000001249124A914204D20860E2
S3150800024001F104019142FAD30F49104A914208D2AA
S315080002500F4B0868186001F1040103F10403914289
S31508000260F7D30C4800B1804736F026FEFEE70000BB
S3150800027070E10C0888ED00E034EF00E0615A0008F0
S31508000280002000205CDA032014750F08DC8A0F08AA
S31508000290000000200000000000207047704700BFE3
S315080002A04FF0FF30704700BF4FF0FF30704700BF78
S315080002B02DE9F04786B0504EDFF890A14FF00108BF
S315080002C00DF117034D4A03250746DFF8849130469A
S315080002D0009300244A4B4B498DF817504A4DCDE9F7
S315080002E0012A4A4A0CF052FE304641460DF010FAF1
S315080002F0494630460DF018F830460DF019F83046E4
S315080003000CF048FF424E434B2846434A4349CDF832
S3150800031008A0CDE900461C601C75146014750C60B5
S315080003200C750CF033FE284641463D4E0DF0F0F9AB
S315080003304946284685F8EB800CF0F6FF28460CF06F
S3150800034023FF28460CF026FF28461AF0C5FD04F0C0
S3150800035067FF04F013FF04F0ABFE2DF007FD02F073
S315080003602BFF02F0D5FE30462CF0C2FE2CF0A0FE84
S3150800037020462CF059FD40462CF08AFD2046294996
S315080003802CF0C0FD2CF0D2FC02F0F8FB26492748D9
S3150800039027F0E2FF2146264826F09EFC21462548FE
S315080003A026F002FD2146304626F072FC022122483C
S315080003B025F0E6FA28F052FF2CF078F83146284660
S315080003C04FF461622BF0CCFE1C4E4FF46161502253
S315080003D04346284600920394194ACDE9011619495D
S315080003E02BF07AFF18482CF007FB38462DF06EFFE5
S315080003F006B0BDE8F08700BF00700120D5FA0108F5
S315080004001820002048200020307101207820002084
S3150800041059E9020800200020602000203020002032
S3150800042090250B089C250B080D65020800D10320B2
S31508000430A8250B08B0250B08080000207905000838
S31508000440C4250B08CC250B08EC270B089DFD0108D5
S315080004505504000830B504461E4983B01E4D94F86D
S31508000460E72094F8EA3012F0010F1C4894F8E920C6
S3150800047008BF0D4694F8E81000950CF0A1F9201D68
S3150800048017F0B6FF014616480CF09AF904F11C005D
S3150800049017F0AEFF014613480CF092F904F1340048
S315080004A017F0A6FF014610480CF08AF904F14C0033
S315080004B01CF0E6F801460D480CF082F90C4B1B6857
S315080004C00BB903B030BD204603B0BDE830402BF071
S315080004D09DBD00BFD4250B08C84C0C08DC250B08AD
S315080004E0F4250B0808260B0814260B0820260B08EB
S315080004F0A820002010B58AB0002101A82DF038FEEA
S31508000500F0B9044601A914481FF094FD214601A834
S3150800051001242DF0B1FE114B02A905200493029483
S315080005202EF0ECFA0E4802F08BFC0E4B02A90520C1
S31508000530049302942EF0E2FA0B4B1C600AB010BD2D
S315080005400A4B40F295220A490A480CF039F900206C
S315080005500BF05EFE2DF0C4FCB102000888260B08DD
S31508000560902000209C260B08A820002034260B0883
S3150800057044260B0860260B0808B5062208492BF006
S315080005802DFD00B908BD074B4FF48B720649074885
S315080005900CF016F900200BF03BFE2DF0A1FC00BF75
S315080005A0B4260B0834260B08BC260B0860260B0855
S315080005B000B589B00122054B0520694600920293D1
S315080005C02EF09CFA09B05DF804FB00BFDC260B0888
S315080005D03CF056BAD0B58CB003460024002603A9D1
S315080005E068460027CDE900343BF0FCF803A82FF055
S315080005F0D7FE2146242203A8CDE900673BF000FF79
S3150800060020463DF045F802460B466846CDE90023EC
S315080006103BF0E0F80BF0D6FD0CB0D0BD70B501216B
S315080006208AB004463F202EF043FB002860DB2246B2
S315080006303D49052004F022FF01202EF0DBFB041EB5
S315080006404ADB4FF4A26101202EF0AEFD002861DBE3
S31508000650364B0024364A6FF07F41364E4FF0FF3056
S315080006601A60354D354A1C751160354B3549347558
S315080006702C70354E354D14751C75354A1E600C7533
S31508000680344B0D6034491060196014751C752DF0D3
S3150800069095FC0120234622463049009030482DF02B
S315080006A01DFD01F00BF92F49052004F0E7FE37F090
S315080006B0F5FE36F01FFC002823DB4FF43C722A4B6C
S315080006C002252A4C02A9002002950693CDE9044288
S315080006D02EF014FA0AB070BD63B22933B1D004F013
S315080006E0A9FF234902462312032004F0C7FEA8E700
S315080006F000904FF42F721F4B03201C4904F07AFF19
S3150800070095E7009040F2EF221B4B0320174904F0AF
S3150800071071FFD2E7009040F2CB22184B0320134911
S3150800072004F068FF94E700BF28270B080020002084
S31508000730C0A80001902000202C7101206020002014
S315080007403020002018200020C0A80002C0A80201FE
S315080007507820002048200020C0A80202F5040008DE
S31508000760BC270B08C8270B0848990C0834260B0821
S315080007704C270B08EC260B08E0270B0874270B08F8
S315080007808068401AB0FA80F04009704700220023BA
S31508000790C0E90023704700BF704700BF02460B46FA
S315080007A002481146D3E902230CF00AB8FC270B08C5
S315080007B008B503460448D3E902230CF001F8034BB5
S315080007C001221A7008BD00BF38280B08B92000207E
S315080007D030B50C4D0C4683B02968626801910092C9
S315080007E048F0C4FB03460848DDE900210BF0E8FFA2
S315080007F02B68206801332B6003B0BDE830404DF00C
S3150800080063BC00BFAC2000206C280B082DE9F0471C
S3150800081004468CB00D464DF06FF9804620464DF0E3
S31508000820EBF882462046384E4DF0CAF90746204670
S31508000830B8F1000F08BFB0464DF026FA844608AA5C
S31508000840204607A9BAF1000F08BFB246002F08BF15
S315080008503746BCF1000F18BF66464CF0E1FFC0B141
S315080008602A480BF0AFFC20464DF034F850B100246E
S315080008700BAB0AAA09A90B9443F076FA044608B901
S315080008800B9B53BB2B68002001332B600CB0BDE8D3
S31508000890F08708998146079853460196424600977D
S315080008A00491CDE902101A4829680BF089FF089BC4
S315080008B0042BD8D1079B1A78712AD4D15A780133D8
S315080008C0752AD0D113F8012F692ACCD15B78742BFD
S315080008D0C9D1104B83F80090C5E70F480BF072FC9E
S315080008E00B9B6BB10D4E099B30460A9A53F82410A0
S315080008F052F8242001340BF063FF0B9BA342F2D875
S3150800090007480BF05FFCBDE7B8280B08C0280B08A2
S31508000910E8280B08B820002078290B0890290B082E
S3150800092038550B082DE9F0418046501C15460E46F1
S315080009301F463BF065F90446002847D031462A464B
S315080009403BF058FC002322464146635507985EF063
S3150800095051FF034620461C463BF05AF96CB3204625
S3150800096055F08CFA0546F8B1D0E9008696B13046BE
S315080009703CF006FD069B054618603BF041F92A4601
S31508000980314638603BF036FC204655F053FA40466F
S31508000990BDE8F081069B022018603BF031F947F666
S315080009A07B5338600380EFE709484FF0FF380BF0B8
S315080009B009FC069B1D603D60E6E706480BF002FC55
S315080009C0069B4FF0FF381C603C60E0E70248F5E7FD
S315080009D0D8290B08BC290B08A8290B082DE9F047CC
S315080009E0804684B0501C154689461F463BF008F9D8
S315080009F00446002846D02A4649463BF0FBFB00231E
S31508000A004146224663550D985EF0F4FE054628B326
S31508000A1055F034FAD0E90068B8F1000F18D040460E
S31508000A203CF0AEFC0C9B824618603BF0E9F8386057
S31508000A3000283BD0524641463BF0DCFB284655F0A1
S31508000A40F9F920463BF0E4F8304604B0BDE8F087F3
S31508000A500C9BC3F80080C7F80080EFE744F074FEEB
S31508000A60804640B11C49012228464923CDE9002188
S31508000A701A4A1B49C04700230C9A4FF4FA763B6082
S31508000A801360DEE744F060FE054640B115490122D1
S31508000A9020463923CDE90021104A1149A8470023E9
S31508000AA00C9A4FF4FA763B601360CDE7039044F056
S31508000AB04BFE804648B10B490122039BCDE9002134
S31508000AC01846064A62230649C04700230C9A4FF483
S31508000AD0FA763B601360B1E7602A0B08E03F0B0823
S31508000AE0FC290B084C2A0B0890ED000B08B50846A4
S31508000AF05AF048FF08BD00BFFFF7F6BFFFF7F4BF7F
S31508000B00F0B5044685B000282ED0504E024650490E
S31508000B10306844F00FFC044600285DD00578002DA7
S31508000B2043D0012D31D10022406811464AF07CFE9F
S31508000B3000287BD10022606811464AF085FE00280D
S31508000B406AD1A0685EF08CFA21460122306844F02A
S31508000B5097FA306844F028FC0446A0B9306844F097
S31508000B60DDF9346005B0F0BD44F0EEFD054650B140
S31508000B70384B01222046384901934FF49973009265
S31508000B800294364AA84705B0F0BD44F0DDFD054697
S31508000B900028D6D03248012140F25D13019000208A
S31508000BA000912E4A2C49A847CBE72A462946406891
S31508000BB044F0D6FE00BB00226068114644F0DCFE15
S31508000BC00028BED044F0C0FD05460028B9D0254807
S31508000BD001214FF4A573E1E744F0B6FD0546002868
S31508000BE0B7D02149012220464FF49D73CDE9002153
S31508000BF01A4A1949A847ACE744F0A6FD0746002853
S31508000C00D9D01A490122284640F24513CDE90021D8
S31508000C10124A1149B847CEE744F096FD0546002822
S31508000C208FD01348012140F25713B7E744F08CFDE3
S31508000C30074600283FF47EAF0E4A4FF4A9730020FA
S31508000C40054901920095054AB84773E7B420002084
S31508000C50810700087C2A0B08FC290B0850400B0862
S31508000C608C2B0B08F42A0B089C2A0B08C42A0B08A1
S31508000C70582B0B08242B0B0838B50378222B01D0E8
S31508000C80022038BD8368012BFAD1C5680C4607498E
S31508000C9028683BF099FF0028F2D16B681A78072A72
S31508000CA0EED1D3E90223C4E9002338BD280C0D0888
S31508000CB030B50346A5B0184D0C46184A04A893ED5E
S31508000CC0000BCDE902529D685AF05CFE58B92946D8
S31508000CD014A85AF085FF50B1012404A85BF038F82F
S31508000CE0204625B030BD0124204625B030BD04ABD2
S31508000CF002220B492046009302AB5BF043FE0446F2
S31508000D0004A8003C18BF01245BF022F814A85BF085
S31508000D101FF8204625B030BD280C0D089C2B0B0863
S31508000D20A42B0B082DE9F041074682B0501C9046CB
S31508000D300E461D463AF064FF044640B33146424625
S31508000D403BF058FA0026B7FA87F22846214604F8F7
S31508000D50086052095EF090FD28B9204602B0BDE849
S31508000D60F0413AF055BF44F0EFFC05460028F4D0B0
S31508000D700F49012230462623CDE900210D4A0E49A6
S31508000D80A847204602B0BDE8F0413AF041BF44F01A
S31508000D90DBFC054640B10949012220461A23CDE964
S31508000DA00021044A0449A84702B0BDE8F08100BF03
S31508000DB0C42B0B08CC3F0B08FC290B08B02B0B08DF
S31508000DC02DE9F0410E4682B0054611461F46A0B1F0
S31508000DD001282CD044F0B8FC0546002867D03E48C8
S31508000DE00121DA233D4A01900020009102243C4962
S31508000DF0A847204602B0BDE8F0811A46306844F09C
S31508000E00AFFD04468046002835D044F09DFC0646D2
S31508000E100028EED0334901222846B923CDE900211E
S31508000E202E4A2F49B047204602B0BDE8F0811A463F
S31508000E3030684AF0F9FC0446804680B144F084FCE8
S31508000E4006460028D5D0284ACA23002024490192FC
S31508000E500095224AB047204602B0BDE8F0813A46DE
S31508000E60224930684AF0F0FC044610BB00242046AC
S31508000E7002B0BDE8F0813A461C49306844F07CFD72
S31508000E8004460028F2D042464146306844F068FDE0
S31508000E9044F05AFC05460028ABD0154901224046C5
S31508000EA0C123CDE900210D4A0D49A847A1E702242F
S31508000EB09FE73068424641464AF0B6FC44F044FC97
S31508000EC00646002895D00A4A4046D223044901928C
S31508000ED00095024AB0478CE78C2B0B0810400B088C
S31508000EE0FC290B08C42A0B08242B0B08DD0900086B
S31508000EF0F42A0B0830B50C4685B089B144F024FCB9
S31508000F00054650B10C4B012200200C490193892358
S31508000F1000920B4ACDE90240A847002005B030BD33
S31508000F2008480BF04FF9084B204608491C7005B0D5
S31508000F30BDE8304054F024BFFC2B0B08EC2B0B0803
S31508000F40103F0B084C2C0B08B8200020602C0B080F
S31508000F5030B585B091B10C4644F0F6FB054650B164
S31508000F600C4B012200200C490193892300920B4A5D
S31508000F70CDE90240A847002005B030BD08480BF06F
S31508000F8021F90120074B0849986205B0BDE83040B1
S31508000F9054F0F6BEFC2B0B08EC2B0B081C3F0B0879
S31508000FA0802C0B0850800220A82C0B0830B50C4664
S31508000FB085B089B144F0C8FB054650B10C4B0122F7
S31508000FC000200C490193892300920B4ACDE902407F
S31508000FD0A847002005B030BD08480BF0F3F8084BC9
S31508000FE0204608499C6205B0BDE8304054F0C8BEAA
S31508000FF0FC2B0B08EC2B0B08303F0B08D42C0B08EA
S3150800100050800220FC2C0B082DE9F04182B00E46D8
S315080010101746054657F042FE0446002837D057F0D3
S315080010207DFE0346294620461D4656F089FF04469E
S3150800103020B33246294601235DF02CFF04460028DA
S3150800104000F087803D460346B86015F8040B544AFD
S315080010502946FFF7B5FE002840F08480DFF86C814A
S31508001060D8F80060002E58D030460122394643F0A1
S31508001070B5FFF0B9204602B0BDE8F08144F064FB44
S315080010800546002860D047480121F22307E044F0CE
S315080010905BFB0546002857D043480121E823019009
S315080010A020460091414A4249A847204602B0BDE879
S315080010B0F08144F049FB064640B13E4801219C2395
S315080010C03D4A0190002000913949B047D8F8000000
S315080010D044F06AF9064600285AD044F035FB06461D
S315080010E048B13648012140F21113304A01900020D8
S315080010F000912F49B0470023294638781A46FFF74A
S315080011005FFE00283CD044F01FFB0546002837D078
S315080011102B4801214FF48B732CE00C2043F0C4FEBE
S315080011200646C8F8000000289ED144F00DFB80460C
S315080011300028D2D02349012230469523CDE9002143
S315080011401D4A1B49C047C8E70024204602B0BDE82F
S31508001150F08144F0F9FA05460028F5D01A4801212D
S31508001160FC239CE744F0F0FA054648B114480121EF
S3150800117040F205130190002000910C4A0C49A8473B
S31508001180204600245DF06CFF204602B0BDE8F081E1
S31508001190D8F8000043F0C2FEC8F800609DE700BF1B
S315080011A0250D0008502D0B08282D0B0834400B0878
S315080011B0FC290B08E42D0B08F83F0B08002E0B083A
S315080011C0982D0B08C82D0B08742D0B08B420002089
S315080011D010B582B044F0B8FA48B101210446054872
S315080011E08923009101900020034A0449A047002062
S315080011F002B010BD3C2E0B08443F0B08EC2B0B0825
S3150800120010B582B044F0A0FA48B101210446054859
S315080012109B23009101900020034A0449A04700201F
S3150800122002B010BD3C2E0B086C3F0B08EC2B0B08CC
S3150800123010B582B044F088FA48B101210446054841
S315080012409F23009101900020034A0449A0470020EB
S3150800125002B010BD3C2E0B08903F0B08EC2B0B0878
S3150800126008B505480AF0AEFF044B0020044918707B
S31508001270BDE8084054F084BD4C2C0B08B82000206B
S31508001280602C0B0808B505480AF09CFF044B0120A2
S3150800129004499862BDE8084054F072BD802C0B08DA
S315080012A050800220A82C0B0808B505480AF08AFFCA
S315080012B0044B002004499862BDE8084054F060BD1C
S315080012C0D42C0B0850800220FC2C0B0800000000D0
S315080012D02DE9F04F0024C04F0125824620463D7077
S315080012E02DED028B97B009943CF0D2F93BF0C0FB88
S315080012F0BA4B1C6040F024FB38B1B9480AF062FFCB
S3150800130017B0BDEC028BBDE8F08F044657F050FDD0
S3150800131048B1B4480BF054FA40F020FB17B0BDECC6
S31508001320028BBDE8F08FB049B0485DF0BBFC0646BD
S31508001330002800F01882BAF1010F00F0C880BAF14F
S31508001340020F00F0BF80BAF1000FE5D1A8480AF0F5
S3150800135039FFA849A84B18684AF032FA804600288F
S3150800136000F06582A54B1B78002B40F01082A44A3A
S315080013704046A4494AF05CFA002840F0048201235A
S315080013801821A1480CAACDF834808DF83030FFF723
S315080013903BFE8346002800F009829C480AF012FFAB
S315080013A001230CAA10219A48CDF834808DF83030E4
S315080013B0FFF72AFE0590002800F0F48195480AF008
S315080013C001FF894989485DF06DFC934956F0B8FDDF
S315080013D00023202284495DF05DFD0546002800F0C3
S315080013E0E98102468D4940464AF02EFA002873D113
S315080013F08B480AF0E7FE09AA8A4940464AF0FCF9F2
S31508001400002800F0948188480AF0DCFECDF818A080
S315080014104FF47A66A2469FED6E8B0EE0834B1B78DF
S31508001420002B5DD1013640464AF0FAF9012040F01A
S31508001430BBFB3B78002B00F04A8141F287339E4282
S31508001440ECDD3BF01DFB434200F00300B2EE046BFB
S3150800145003F00303764A05F1180605F1100458BF90
S315080014605842831C07EE103AB8EEC77BD2E906232A
S3150800147037EE067BC5E9042385ED027B3BF000FBCE
S315080014806C4B83FB0023C217C2EBE30205F108038A
S3150800149002EB82010322A0EB81000BA907EE900A5A
S315080014A00AA8B8EEE77B37EE087B85ED067BCDE923
S315080014B000465DF021FE002839D05F480AF082FE1A
S315080014C00126B0E75D480AF07DFE5D4942E75D48C2
S315080014D00AF078FE5C493DE75C480AF073FE8AE745
S315080014E0059B4FF00009514801220BA980F800908E
S315080014F00AA893ED027B564B8BED027BCBF8103096
S315080015005B465DF091FF0446002800F0B78044F082
S315080015101BF90446002885D04E49012248464FF457
S31508001520BE73CDE900214C4A4C49A0477AE74C4B9B
S315080015300B99A3FB0A230A9823F0030404EB9303ED
S31508001540AAEB03044BF0A6FE16AB03EBC402E400B9
S3150800155042F8280C002800F0EE8042F824AC4CF043
S31508001560B9F9059BDFF810C106463E4A4FF480617B
S315080015703D4895ED046B93ED027BB4EEC76BF1EE37
S3150800158010FAD8BF624641F007FC3046364A37495A
S3150800159042F0A0FA002840F0E280069B002B00F0FB
S315080015A0D18016AB324A404619190CAB51F8281CA3
S315080015B023444AF019F9002800F0B4802D480AF0AF
S315080015C001FE0A980AF1010A3AF022FB78E700BF01
S315080015D00000000000004E40B8200020AC2000208B
S315080015E0642E0B08882E0B080C3F0B08A42E0B083C
S315080015F0DC2E0B0839120508B020002010800220C6
S3150800160000180D08606D0D08EC2F0B0834300B0818
S3150800161070300B08BC300B08F8300B082509000899
S3150800162074310B080D080008AC310B08B9200020EE
S3150800163050800220676666661C320B08342F0B083A
S3150800164025150508082F0B085913050830310B080E
S3150800165038330B0840330B0870400B08FC290B087D
S31508001660CDCCCCCC5C2E0B08BC2000205C320B0801
S31508001670D1070008AC320B089C570E08754B5A4622
S315080016807549186843F056FE002800F0D48090F893
S315080016900090B9F1000F00F0AE80B9F1010F00F02B
S315080016A08D80079044F050F8814660B1079B01226F
S315080016B06A4920461B78CDE90021029340F2A71318
S315080016C0674A6849C8470A983AF0A2FAAAE603217F
S315080016D065480BF075F840464AF0A2F8012040F03C
S315080016E063FA40464AF09CF8012040F05DFA40460D
S315080016F04AF096F8012040F057FA059B13B11846B0
S31508001700FFF7FEF9BBF1000F02D05846FFF7F8F9CC
S3150800171015B128465DF0A4FC40464AF061F857F03A
S3150800172087FBF9E5514651480BF04AF849E7504816
S315080017300AF048FD6AE64F480AF044FD0A983AF06E
S3150800174067FABDE616AB4C491E1956F8280C4CF03C
S31508001750F3F956F8280C49494CF052FA21E748485B
S315080017600AF030FD19E743F0EFFF044600283FF47E
S31508001770D3AD444A304640F23F134349019200959F
S31508001780424AA047C8E542480AF01CFDF7E5414A27
S3150800179041494AF04DF800283FF4E9AD3F480AF0C0
S315080017A011FDE4E53E480BF00BF80AE63D480BF060
S315080017B007F8F5E53C480AF005FD1CE640683B4B92
S315080017C0CDF800B0DDE90A124AF036F800283FF4F1
S315080017D07AAF43F0B9FF079000283FF474AF344A54
S315080017E020464FF4CE731F490192079C1C4ACDF838
S315080017F00090A04767E740682C4BCDF800B0DDE9BC
S315080018000A1244F0B1F800283FF45DAF43F09CFF9C
S31508001810044600283FF457AF25490122484640F2BE
S315080018208F13CDE900210E4A0E49A0474BE7214800
S315080018300AF0C8FC73E7079043F086FF04460028C1
S315080018403FF441AF079B01221B4918464FF4C27368
S31508001850E7E700BFB4200020810700087C330B08A7
S3150800186070400B08FC290B08AC330B08E4320B0854
S31508001870E8310B0834320B0890320B08A4320B08F7
S3150800188070320B08B42E0B08EC2B0B08B83F0B086C
S31508001890C42F0B0800800220942F0B08A02F0B08DA
S315080018A084300B08FC2F0B080C310B089D07000829
S315080018B064330B08702F0B089C2A0B08704700BF6F
S315080018C038B5154B1B6813B3012816DD4D680C4651
S315080018D0124928463BF078F9A8B1114928463BF049
S315080018E073F950B128460F493BF06EF950B121689B
S315080018F00D480AF065FF002038BD0120FFF7E8FC17
S31508001900002038BD0220FFF7E3FC002038BD074859
S315080019100AF058FCEFE700BFB020002054340B084B
S315080019205C340B0864340B086C340B0810340B0851
S3150800193042B110B901231360704700210123C2E99F
S315080019400013704701480AF03DBC00BFB0400B08C1
S315080019502E200AF053BC00BF002B52D02DE9F047C9
S31508001960044684B01D4670B10D280AD8294B53F891
S31508001970201029480AF024FF02236B6104B0BDE851
S31508001980F0872649F5E70E46174625484FF0010A1F
S315080019900AF016FFDFF8A0903146281D41F066FDD3
S315080019A0394605F1100041F061FDD9F800203346AB
S315080019B02146019220461B4A0097C5F814A02CF030
S315080019C06DFE00EB0A018046084603913AF018F9C5
S315080019D003990546C0B1D9F800203346124ECDE921
S315080019E00072104A2CF05AFE306805F808403AF0A2
S315080019F00FF929460D48356004B0BDE8F0470AF0EE
S31508001A00DFBE0B480AF0DEBB0A480AF0DBFB50468D
S31508001A1003F01EFE280000209C410B0824990C08A0
S31508001A20F8400B0830410B08B020002084410B0811
S31508001A30E0400B085C410B08BC2400200D2803D8A5
S31508001A40024B53F8200070470148704728000020D1
S31508001A5024990C08A0B1F8B5B1FA81F40F466409C7
S31508001A6051B10646074D55F8041B30463BF0ACF815
S31508001A7020B101340E2CF6D12920F8BD3C70F8BDF2
S31508001A802920704728000020052803D8024B53F860
S31508001A9020007047014870471000002024990C0860
S31508001AA0A0B1F8B5B1FA81F40F46640951B10646FA
S31508001AB0074D55F8041B30463BF086F820B1013433
S31508001AC0062CF6D12A20F8BD3C70F8BD2A207047AE
S31508001AD010000020042870B592B07EDD4C680D46D3
S31508001AE04E4920463BF070F8002858D14C4A4D4ED6
S31508001AF0002429694C4B03921960D5E9025050F02D
S31508001B00F5FF8DF8174043F0D5FE042050F07CFF12
S31508001B100A232946039A454808940D9411940B9470
S31508001B2010940C93CDE90944CDE90E4450F07AFAA5
S31508001B30044600284DD03E4A3E4950F017FE00287C
S31508001B4067D10DF117023C49204650F00FFE0CAA4A
S31508001B503A4B20463A49009250F048FB002854D1A7
S31508001B60204650F0C3FC0C9840F01EF8119B002B41
S31508001B70F6D0204650F034FB119B012B17D0314884
S31508001B800AF020FB0D983AF043F810983AF040F81E
S31508001B9050F084FF43F0ACFE002012B070BD2A4915
S31508001BA020463BF011F8F0B9284A294EA0E73246FC
S31508001BB010990D984BF0FAF9044608B3002306AAC3
S31508001BC02449CDE906334BF005FA20464BF0F2F9E5
S31508001BD0D8E721480AF0F6FACEE720480AF0F2FAE2
S31508001BE0002012B070BD1E4920463AF0EDFF1D498F
S31508001BF000281D4B154A164E04BF0A461E4677E7AF
S31508001C000D991A480AF0DCFDBCE719480AF0DAFA19
S31508001C10AFE718480AF0D6FA93E700BF54340B0822
S31508001C20C144050839120508BC24002020420B08C7
S31508001C3000180D08606D0D0870420B085119000850
S31508001C4059190008AC420B085C340B08F545050821
S31508001C50591305083119000848420B08C8410B08F2
S31508001C6064340B085D5D050825150508CC420B088C
S31508001C707C420B08C42F0B080128F8B527DD4F68EE
S31508001C8038463BF07DFB4528044615D9013039F026
S31508001C90B7FF054608B339460026124F22463AF0E2
S31508001CA0A9FA2E55386839F0B3FF29460E483D6023
S31508001CB00AF086FD3046F8BD0C480AF083FA0C484F
S31508001CC00AF080FA0B480AF07DFA0020F8BD096888
S31508001CD009480AF075FD0020F8BD08480AF072FAAE
S31508001CE00120F8BDB020002084410B08A8450B0848
S31508001CF0EC450B0838460B0888450B085C410B0871
S31508001D0001282DE9F04F2DED028B85B040F3E880D0
S31508001D104868037833B104463A2B0DD014F8013FCE
S31508001D20002BF9D19A480AF04DFA4FF0FF3005B06A
S31508001D30BDEC028BBDE8F08F631C6178221A04F1B2
S31508001D40030B03930029EDD02F2975D1A17800291B
S31508001D50E8D02F29E6D1E1785C4649B13A2900F066
S31508001D608880402900F0CD8014F8011F0029F5D19C
S31508001D704FF00008A4EB0B064746454608EE108AC6
S31508001D804446CDF80C80002A04DD82493BF066FB08
S31508001D900028C7D1002EC5D07019384440440430F5
S31508001DA039F02EFF8146002800F0EC80DFF8ECA120
S31508001DB0DAF8000039F02CFF5946324648463AF020
S31508001DC019FA731C21464FF0000B09EB03042A4647
S31508001DD009F806B02046CAF800903AF00BFA04F85B
S31508001DE005B0002D40F0AD8041F690700135CAF877
S31508001DF0040018EE101A3A462544002628463AF0FA
S31508001E00F9F957EA0803EE5500F08F800137039970
S31508001E104246CAF808502F4438463AF0EBF907F814
S31508001E2008605D4B01220020CAF80C701A7005B0D4
S31508001E30BDEC028BBDE8F08F40297BD0A5788346A0
S31508001E400234002D00F09380002017460246402DEC
S31508001E5018D014F8015F002DF9D1039B3E46E51A08
S31508001E601C464FF00008474608EE108ACDF80C804D
S31508001E7089E76578A4EB0B070134002D7ED0402D49
S31508001E800394E6D1039BA4EB03086678611C002E35
S31508001E9069D08C463A2E0BD011F8016F002EF9D175
S31508001EA008EE10BAA1EB0C06E34600252C466AE7B5
S31508001EB04D78A1EB0C064C1C75B18D780231002DBE
S31508001EC05ED04B7801F1020E002B44D08B78714618
S31508001ED0002BF6D1AEEB040508EE10BAE34652E73E
S31508001EE02E4A9468C4B150682146136800902C485D
S31508001EF0D2680AF065FC002005B0BDEC028BBDE88F
S31508001F00F08F6678A4EB0B07611CF6B14FF000085A
S31508001F108C46CDF80C80BDE71568FDB15268294698
S31508001F2020480AF04DFC204601E71F46CAF808304B
S31508001F306B7076E7174600228346039C9046104648
S31508001F40A3E7204639F03EFC50E708EE10BAB04643
S31508001F508B460396A9E701F1010EBBE712480AF082
S31508001F6031F92846E3E608EE10BA8B469DE728467F
S31508001F70039B1646E51A02461C4672E73E4670E77C
S31508001F808E46A7E709480AF01DF94FF0FF30CEE65E
S31508001F90E8460B0854340B08108002200080022003
S31508001FA090460B08B0460B08CC460B08D8460B08DB
S31508001FB010B5064C206839F02BFE0020044BC4E906
S31508001FC00000C4E90200187010BD00BF008002209E
S31508001FD010800220000000002DE9F04F2DED028B45
S31508001FE09FED338B8BB0DFF8D490DFF8D4A04FF495
S31508001FF07A78314899ED023B99ED044B99ED086BD7
S3150800200023EE083B24EE084B26EE086BFDEEC33B99
S31508002010FDEEC44B99ED065B99ED007BFDEEC66BB4
S3150800202013EE907A25EE085B14EE906A8AFB073E5B
S31508002030FB1716EE904A8AFB061227EE087BF11765
S31508002040C3EBAE13C1EBA2118AFB04B2FDEEC55B6E
S3150800205008FB1377099208FB1166FDEEC77B15EEA0
S31508002060905A00978AFB05BEEA1717EE90CA099F91
S31508002070C2EBAE1202968AFB0CEB4FEAE47E4FEAFD
S31508002080EC7608FB1255CEEBA7170191C6EBAB1100
S3150800209008FB1744CDE90325CDE9057408FB11C2F1
S315080020A00AF08EFB40463FF07FFDA0E7AFF30080C5
S315080020B00000000000408F4030470B085080022087
S315080020C0D34D6210074B10B50446186830F012F865
S315080020D00346054A20469BB2BDE8104013802FF000
S315080020E005BF00BF188002202880022000000000DB
S315080020F0F0B532A1D1E9000132A7D7E90067284A2D
S315080021009BB0284B00240125119410941494129422
S315080021101595C2E90001C3E900670222224F0EA9FC
S3150800212003201392CDE90E44CDE91644CDE91844AF
S315080021302FF08EFD0646386000282FD01B4B052150
S31508002140C363284630F0E2F80823072201A9019361
S31508002150836802950493037B3868039205932FF0EE
S31508002160CDFF064630B938682FF07EFE60B928469E
S315080021701BB0F0BD0E4B06A90320069508932CF05C
S31508002180BDFC20461BB0F0BD0A4B06A903200695E8
S3150800219008932CF0B3FC30461BB0F0BD064BF4E7B1
S315080021A0208002203080022018800220C5200008E6
S315080021B090470B08B0470B0878470B08000000004B
S315080021C00088B3400000000000D6AA400C4B1868EF
S315080021D0C36C0F2B01D90020704700B589B02FF0CA
S315080021E043FE18B9012009B05DF804FB0122054B2E
S315080021F069460520009202932CF080FC0020F2E745
S3150800220018800220B0470B0808B5214B1B6863B33A
S31508002210204B214A1B889BB21B0107EE903AC3F557
S31508002220803392ED005BB8EEE76B07EE103AB8EE36
S31508002230C77B26EE056B9FED0E5B86EE070B80EEE1
S31508002240050B3FF0F5F9154BB7EE005B93ED003B38
S315080022509FED094B9FED0A6B80EE037B37EE047BFF
S3150800226085EE070B30EE460B08BD9FED070B08BD44
S31508002270000000000088C3408B33DA3D6C7D6B3F5D
S31508002280000000000010714066666666661271C03E
S315080022901880022028800220208002203080022018
S315080022A030B5024689B000210D20059230F008F8B5
S315080022B00C4B012407AD0C48196823460068059A9B
S315080022C002913A21CDE900542FF0C2F838B90D2011
S315080022D021462FF0F5FF9DF81C0009B030BD4FF0E0
S315080022E0FF30FAE7600000203880022070B5034608
S315080022F086B00D460D200021144605932FF0E0FF09
S315080023000B4BA4B20B483A211E6801230194059A87
S315080023100095029600682FF09BF8044601210D20CF
S315080023202FF0CEFF201E18BF0120404206B070BD18
S31508002330600000203880022030B5024689B00B467E
S315080023400D20002105928DF81C302FF0B9FF0D4B9A
S3150800235001250D4907AC1B6808683A2102932B46EC
S31508002360059A019500942FF0F9F838B904462946DC
S315080023700D202FF0A5FF204609B030BD4FF0FF34E1
S31508002380F9E700BF600000203880022070B51446C7
S3150800239088B00D4601260590FFF782FF254020EA02
S315080023A0040400210D202C438DF81C402FF088FFD3
S315080023B00C4B07AC0C48196833460068059A02911D
S315080023C03A21CDE900462FF0C9F838B90446314616
S315080023D00D202FF075FF204608B070BD4FF0FF3472
S315080023E0F9E700BF600000203880022008B5002009
S315080023F0FFF756FFC0B208BD04222D201146FFF78D
S31508002400C5BF00BF042200212D20FFF7BFBF00BFB4
S3150800241001462C20FFF790BF01463120FFF78CBFFD
S31508002420082231201146FFF7B1BF00BF08222D2030
S315080024301146FFF7ABBF00BF244B3C2270B50126FF
S3150800244092B000241960224D3D23304608A90A9609
S3150800245008950B9409940C94CDE91023CDE90E4404
S315080024602EF08CFE1B4B186028B30D2120462FF04A
S315080024704DFF054660B10D202FF014FF022300968C
S3150800248069460393A868CDE901642A7B2DF096F97D
S31508002490042200212D20FFF779FF0A2036F0E6FAFC
S315080024A001213120FFF748FF19212C20FFF744FFAF
S315080024B0012012B070BD0546074B694603200096F9
S315080024C002932CF01BFB284612B070BD600000205A
S315080024D0280ED00038800220CC470B0800000000E8
S315080024E0F8B50446002836D008221D4D2D20114681
S315080024F0FFF74CFF294606223220FFF7F7FEE97858
S31508002500AB78B0FA80F06F792A7903EB01216E78FF
S3150800251040092B7802EB072209B203EB062307EEE4
S31508002520901A12B21BB2B8EEE75B07EE902AB8EE25
S31508002530E76B07EE903A9FED084BB8EEE77B85EE22
S31508002540043B86EE045B87EE046B84ED023B84ED68
S31508002550045B84ED006BF8BD0000000000C05F401E
S315080025603C800220014B00221A807047C0240020BC
S315080025700E4BB0B1188840F0010039B140F00200A6
S315080025804AB140F0040018802EF0CEBC20F00200BC
S3150800259080B2002AF5D120F0040080B218802EF00F
S315080025A0C3BC188820F0010080B2E6E7C0240020EA
S315080025B0114B10F0010F00F0020100F00402188818
S315080025C015D040F0010039B140F002004AB140F0A0
S315080025D0040018802EF0A8BC20F0020080B2002A61
S315080025E0F5D120F0040080B218802EF09DBC20F0B2
S315080025F0010080B2E7E700BFC0240020074B10B5F2
S31508002600044618682FF076FD0346054A20469BB215
S31508002610BDE8104013802FF069BC00BF448002203B
S3150800262048800220F0B501259BB000244FF40073C2
S31508002630224F0EA9284615951194139410941294B6
S315080026401493CDE90E44CDE91644CDE918442FF08C
S31508002650FFFA0646386000282ED0194B2146C36378
S3150800266028462FF053FE072301A90194CDE902530A
S3150800267083680493037B386805932FF03FFD06466D
S3150800268030B938682FF0F0FB60B928461BB0F0BDAA
S315080026900C4B06A90320069508932CF02FFA204622
S315080026A01BB0F0BD084B06A90320069508932CF02D
S315080026B025FA30461BB0F0BD044BF4E744800220EF
S315080026C0FD25000890470B08B0470B0878470B080C
S315080026D00C4B1868C36C0F2B01D90020704700B546
S315080026E089B02FF0C1FB18B9012009B05DF804FBC9
S315080026F00122054B69460520009202932CF0FEF94B
S315080027000020F2E744800220E0470B0800000000A2
S31508002710094B1B6843B1094B1B889BB21B0100EE92
S31508002720103ABAEEC80B70479FED010B704700BF11
S3150800273000000000000000004480022048800220BB
S315080027402DE9F843344C4FF47A7164200025334E52
S3150800275042F20F77A046DFF8C890FFF76DFEFFF745
S31508002760C7FCFFF7FFFEFFF75DFF0BE040F0080030
S3150800277030802EF0D9FBFFF729FDFFF7A9FF0A20C5
S3150800278036F074F9022D3ADD0135042D3ED0BD42EE
S3150800279000DD0025FFF738FD84ED060BFFF7B8FFCF
S315080027A0B6EE007B94ED046B94ED025B84ED080BAA
S315080027B0B0EEC66BB0EEC55BB4EEC76B94ED006BBE
S315080027C0F1EE10FAB4EEC75BB0EEC66BCCBF0122D1
S315080027D00022F1EE10FAB4EEC76BCCBF012100213E
S315080027E0F1EE10FACCBF01200020FFF7C1FEA36A64
S315080027F03088002BBAD120F0080080B2B8E74046EE
S31508002800FFF76EFE0028C4D10135C3E74946052007
S3150800281002F034FEBEE700BF50800220C02400202C
S31508002820FC470B08012803DD4A68024B12781A7028
S3150800283000207047C224002001281FDDF8B54E6825
S315080028400021013E0A46084603E005EB4702042933
S3150800285010D016F8014FCB0002EB8207A4F1300521
S3150800286002FA03F3EAB2092AEFD900221843013122
S31508002870002CECD100F0DEFA0020F8BD4FF0FF3056
S31508002880704700BF01282DE9F04135DD4D682A78EB
S31508002890A2F13003092B58D8002404EB840302EB79
S315080028A0430315F8012FA2F13006A3F13004092ECF
S315080028B0F3D902283BD08868A3F131020178A1F147
S315080028C03003092B16D8002303EB830301EB4303DC
S315080028D010F8011FA1F13005303B092DF4D9072A5C
S315080028E00AD843B31F4D013C01232A68A34013436A
S315080028F02B6002E0072A1ED91A4D1B48002401271F
S31508002900DFF86C80194E09F05DFC07FA04F32A68B3
S3150800291001343046134208BF404609F051FF082CDF
S31508002920F3D10A2009F06AFC0020BDE8F081A3F182
S315080029303102072AE0D801220A4D631E02FA03F380
S315080029402A6822EA03022A60D7E70228D4D08868D0
S315080029500178A1F13003092BCED84FF0FF320024BD
S31508002960B1E700BF24D2032014480B0838480B08E7
S3150800297040480B0802284EDD486838B50278A2F1AF
S315080029803003092B3DD8002505EB850302EB4303ED
S3150800299010F8012FA2F13004A3F13005092CF3D960
S315080029A08868A3F131020178A1F13003092B1CD8FC
S315080029B0002404EB840401EB440410F8011FA1F180
S315080029C03003303C092BF4D9032A01D9002038BD3D
S315080029D02EF08CFA6CB16B1E104A32F8133018437D
S315080029E080B22EF0A1FA002038BD032AEED82EF0C8
S315080029F07DFA6B1E094A32F8133020EA030080B2CA
S31508002A00EFE788680178A1F13003092BDED84FF08B
S31508002A10FF320025CCE74FF0FF307047B44A0B0869
S31508002A20014808F093BF00BF64000020024B002253
S31508002A3018781A7040B27047C2240020064B00224C
S31508002A4018781C3320B101320A2AF9D100207047C0
S31508002A5004200A60704700BFC424002003460549C5
S31508002A6012680020D3F8E830C3EBC30301EB8303F5
S31508002A709A617047C424002038B5C3680C46D0F85C
S31508002A80E810012B16D0022B12D10F4DC1EBC10154
S31508002A9005EB81014D1C28463AF072FC2946024690
S31508002AA020462BF035FA28463AF06AFC00B238BDC3
S31508002AB0002038BD044BC1EBC101042003EB8101A2
S31508002AC08B69236038BD00BFC42400202DE9F0417E
S31508002AD001238AB00F469046009305A803AB11F868
S31508002AE0042B154D002423F0F5FB02E001340A2CD3
S31508002AF00DD02E781C35002EF8D02346013401223D
S31508002B0004A905A8049623F015FC0A2CF1D19DF812
S31508002B10224024B1F12420460AB0BDE8F0813846A7
S31508002B209DF82020079923F0A3F8099B2046C8F8AA
S31508002B30E8300AB0BDE8F081C424002038B50C4658
S31508002B401D46114601230B4A204623F023FC50B1AB
S31508002B5024680021084A10781C3208B1A04204D023
S31508002B6001310A29F7D1F12038BD0020C5F8E8104F
S31508002B7038BD00BF904B0B08C4240020F8B54FF4AD
S31508002B808C7200210D480B2539F03AFC0C4809F0E7
S31508002B9019FB0C4C00230C4F5E1C20463A461521A7
S31508002BA004F8016C2BF07AFD042EC4F8175033464E
S31508002BB004F11C0405F10B05EED1F8BDC424002070
S31508002BC0BC4A0B08C5240020E84A0B082DE9F04F3B
S31508002BD08F4FAFB00120002100223B680692CDE955
S31508002BE004011BB11A7D002A40F0F180012203215D
S31508002BF002201EF0D7FE0646002EC0F2FA801020EC
S31508002C0041F2060240F6FF710DEB000300903046D4
S31508002C101FF0F2FB002840F0EF80D7F800A0054629
S31508002C20DFF80CB20DF10C09DAF800300DF13C08AA
S31508002C304BB94FF4FA7035F019FFD7F800A0DAF857
S31508002C400030002BF5D09AF81430062B00F08F8050
S31508002C50282013F0C3FC0446002800F08880BBF83F
S31508002C60000000226FF050030821013062702170C5
S31508002C7080B2A270E27023716371ABF8000012F0A3
S31508002C801BFC0022E11DE080134601F8013F0133D9
S31508002C90202BFAD12821204612F0DCFB60809AF816
S31508002CA01430002B6FD0062B0BD140F60423ADF859
S31508002CB07830DAE900302093DAE90213CDE9210108
S31508002CC023931EAB4FF01C0A214628220093304658
S31508002CD00023CDF804A01EF059FD034620461C46E5
S31508002CE013F0D6FA002C42D02BF02EF9494B0024CB
S31508002CF0CDF80CA0186001E01C23039300234022A2
S31508002D001EA93046CDF80490CDF800801EF0A8FA2A
S31508002D10002822DD1B28EFDD9DF83D30022BCDE98A
S31508002D200944CDE90B44CDE90D4434D00A2BE3D050
S31508002D309DF878301EAA4AF6AF7103F00F0302EB2E
S31508002D4083039A888A4229D00123334A16A9052083
S31508002D50189216932BF0D2FECEE703462F4801228F
S31508002D6016A918900520199316922BF0C7FE01355F
S31508002D704FF47A702BF0CAF8032D7FF75EAF3B68E5
S31508002D8000251D6055E74FF40173ADF87830DAF881
S31508002D9000301F9395E7109B0993C9E7B3F806A07F
S31508002DA0BBF8000012F088FB8245CDD1099C2BF0B8
S31508002DB0CBF8184B012216A919941B681692C31A48
S31508002DC01748189005201A932BF098FECFE71A6833
S31508002DD032B95A6822B99B6813F5803F3FF406AFAB
S31508002DE03A2203210A201EF0DDFD0646002EBFF614
S31508002DF006AF2FB0BDE8F08F0A4B40F219120A4908
S31508002E000A4809F0DDFC002009F002FA2BF068F800
S31508002E10E0250020E42500200C4C0B08184C0B0874
S31508002E20F44B0B08984B0B08D44B0B0860260B0881
S31508002E30DC250020014B1B6818607047E025002040
S31508002E4030B5002383B001220546054C00921A4688
S31508002E500449054825602BF041F903B030BD00BF91
S31508002E60E0250020CD2B0008284C0B0810B5044699
S31508002E7040681EF05BF80F4A1368A3420BD02BB1CB
S31508002E801A68A2420ED01346002BF9D12046BDE897
S31508002E90104013F0FDB923682046BDE810401360C2
S31508002EA013F0F6B9226820461A60BDE8104013F000
S31508002EB0EFB900BFE82500202DE9F04FA7B000269E
S31508002EC001210A200DF12C0832460B960DACC8E9F3
S31508002ED00166C8E90366C8E905661EF063FD0A22AD
S31508002EE0844B054604908DF82D200FCB84E80F00FF
S31508002EF0132012F0E1FAB542ADF82E00C0F2E780D1
S31508002F001C22414604981DF0A1FF013000F0EE8016
S31508002F10049C052120461EF06DF9013000F0E28080
S31508002F20630904F01F020121DFF8E0A19B0009AF45
S31508002F30059301FA02F3029363180DF182040393D1
S31508002F4026AA059BDAF8005002EB030907AB03F83B
S31508002F50016BBB42FBD13B4603F8016B4345FBD1F2
S31508002F6059F87C3C029A0398134349F87C3CDDB136
S31508002F704FF0010C6B6826AA2D6883424FEA531E50
S31508002F80A8BF581C02EB8E0E03F01F035EF87C1CCC
S31508002F900CFA03F35EF8742C194313434EF87C1CA1
S31508002FA04EF8743C002DE5D100233A4607A9009354
S31508002FB01EF05EFD10B9DAF80050C7E759F87C3CF8
S31508002FC0029A1A4259D1DAF80050002DBED0686824
S31508002FD04FF0010B09E026A90B4453F8743C1A423A
S31508002FE023D12D68002DE6D06868430926A900F08C
S31508002FF01F0201EB83010BFA02F29B0051F87C1CBD
S315080030000A42E8D0502212A91EF0A6F900284CDD83
S315080030106A6826A9530902F01F029B000BFA02F2FE
S315080030200B4453F8743C1A42DBD095F828300DF15E
S315080030304702591C02F8013FCBB27F2B08BF212358
S315080030409442F6D10D234FF00A0212A88DF8832078
S31508003050ADF884303AF094F912A9024668681EF071
S31508003060F1FC002821DB95F828300133DBB27F2BF1
S3150800307008BF212385F82830B3E72C2013F0AEFAD1
S315080030800546B0B100F1240200F1080104981DF0CC
S31508003090DFFD0028686016DBDAF800202123CAF86D
S315080030A000502A6085F8283092E72846FFF7DEFEAA
S315080030B046E706AA12A904981DF0CAFD002882DB75
S315080030C01DF034FF7FE7284613F0E2F87BE70A4B4A
S315080030D0A4220A490A4809F073FB304609F098F811
S315080030E02AF0FEFE044BAC220649F3E7024BA72260
S315080030F00549EFE750880C08344C0B08784C0B0848
S3150800310060260B08C84C0B08A04C0B08E8250020C5
S3150800311000B5002383B0FE220449054800921A46EA
S315080031202AF0DCFF03B05DF804FB00BFB92E0008E7
S31508003130EC4C0B0800222820F0B5114683B020F08D
S3150800314027F805460722174920F0DCF8FDB1164F87
S315080031503E4601A9284620F0DFFA04460028F8D1A1
S31508003160019823464FF480523146006812F024FE37
S31508003170019903460A681289904204D12846FC54EC
S3150800318020F038FB019908461FF082FDE1E7074B5E
S315080031903B220749074809F013FB284609F038F887
S315080031A02AF09EFE88850C08EC250020F44C0B08B6
S315080031B0384D0B0860260B0800B5002383B00122A2
S315080031C00449054800921A462AF088FF03B05DF8BC
S315080031D004FB00BF35310008504D0B0810B584B00C
S315080031E00C4603903AF0CCF8002302460399204691
S315080031F0009320F0C5FB04B010BD00BF10B504460F
S3150800320006482168FFF7EAFF21680548FFF7E6FF49
S3150800321021680448FFF7E2FF002010BD7C0000206B
S3150800322040020020340400202DE9F0410A2282B031
S3150800323000210446C0683AF017FA0A2835DC234EFE
S31508003240054656F82030002B37D0D4F810800027D2
S3150800325040463AF095F80D230A21C21C08F80030BA
S31508003260236903445970012321690844877000972C
S3150800327056F82500216920F083FB216830B91448E7
S31508003280FFF7ACFF002002B0BDE8F0811148FFF758
S31508003290A5FF21681048FFF7A1FF21680F48FFF72F
S315080032A09DFF002002B0BDE8F08121680C48FFF7B9
S315080032B095FF002002B0BDE8F08121680948FFF7B4
S315080032C08DFF002002B0BDE8F08100BFEC39002078
S315080032D0FC4D0B08A84D0B08C04D0B08B81D0E0871
S315080032E0604D0B08844D0B0870B52B4E82B0002438
S315080032F00546334653F8041B49B101340A2CF9D163
S3150800330029682648FFF76AFF002002B070BD0A2226
S31508003310E8683AF0A9F90A282FDC56F820000028B0
S3150800332032D006EB840120F0EFF829680646B0B9DA
S315080033301B48FFF753FF23461A4A4FF480611A4881
S315080033402BF0ACF918483AF01BF800960246012310
S315080033502868154920F014FB002002B070BD1348F8
S31508003360FFF73CFF29681248FFF738FF296811481C
S31508003370FFF734FF002002B070BD29680E48FFF73A
S315080033802DFF002002B070BD29680C48FFF726FF04
S31508003390002002B070BD00BFEC390020804E0B083B
S315080033A03C4E0B08203F0E08EC3500201C4E0B083F
S315080033B0C04D0B08B81D0E08604D0B08844D0B0850
S315080033C02DE9F0410A2284B000210646C0683AF089
S315080033D04BF9B0F5803F56D2DFF83881074600240E
S315080033E0434653F8045B55B101340A2CF9D13168C8
S315080033F03C48FFF7F3FE002004B0BDE8F0813168D1
S315080034003948FFF7EBFEF1680846039139F0B8FF33
S315080034100123024603990095306820F0B1FA316815
S315080034203248FFF7DBFE2A46294610201FF0B0FE79
S3150800343048F8240000284DD0BAB22D491FF062FF83
S31508003440074640BBFF2158F8240020F035F805460A
S31508003450002836D131682748FFF7C0FE2346264A9A
S315080034604FF4806125482BF019F9244839F088FF74
S315080034700095024601233068204920F081FA002091
S3150800348004B0BDE8F08131681D48FFF7A7FE0020AB
S3150800349004B0BDE8F08158F824001FF0D9FE194899
S315080034A0316848F82450FFF799FE31681648FFF747
S315080034B095FE31680D48FFF791FE002004B0BDE87F
S315080034C0F08158F824001FF0C3FE31680F4848F809
S315080034D02470E8E731680E48FFF780FE002004B044
S315080034E0BDE8F081804E0B08544F0B08B81D0E0836
S315080034F0607B0C08244F0B08203F0E08EC35002093
S31508003500A84E0B08FC4E0B08C04D0B08104F0B08B5
S31508003510C04E0B08EC3900202DE9F0410A220021A3
S315080035200446C0683AF0A0F80A2830DCDFF8BC8008
S31508003530054658F82030002B43D0206939F020FF83
S31508003540461CB6F5803F1BD21FF092FB0746B1B268
S315080035501FF0B0FB80B33246216939F0BDFF39460A
S3150800356058F8250020F046F9054638461FF090FB26
S3150800357021689DB91548FFF731FE0020BDE8F081A6
S3150800358021681348FFF72AFE0020BDE8F08121686C
S315080035901048FFF723FE0020BDE8F0810E48FFF72C
S315080035A01DFE21680D48FFF719FE21680C48FFF734
S315080035B015FE0020BDE8F08121680A48FFF70EFED7
S315080035C0DBE721680848FFF709FED6E7BC4F0B087A
S315080035D07C4F0B08604D0B08A84D0B08C04D0B0817
S315080035E0B81D0E08904F0B08844D0B08EC390020C7
S315080035F02DE9F0470A228AB000210546C0683AF04C
S3150800360033F8B0F5803F24D2804604A928690AF029
S31508003610F5F9431C074600F0B3800A2200216869C1
S315080036203AF022F8B0F5803F824612D2DFF89C9134
S3150800363000244B4653F8046BA6B101340A2CF9D181
S31508003640002729685348FFF7C9FD38460AB0BDE880
S31508003650F087296800275048FFF7C0FD38460AB0AA
S31508003660BDE8F08729684D48FFF7B8FDE9680846C0
S31508003670039139F085FE01230246039900962868CE
S3150800368020F07EF929684648FFF7A8FD296908460B
S31508003690039139F075FE01230246039900962868BE
S315080036A020F06EF929683F48FFF798FD69690846D2
S315080036B0039139F065FE01230246039900962868AE
S315080036C020F05EF929683848FFF788FD324631460A
S315080036D022201FF05DFD074649F8240000284AD03D
S315080036E01FFA8AF204A91FF093FE8246002838D1F1
S315080036F01FFA88F22D4959F824001FF003FE0746E1
S31508003700C0B929682A48FFF769FD2346294A4FF4B4
S31508003710806129482AF0C2FF274839F031FE009710
S31508003720024601232868244920F02AF938460AB0B7
S31508003730BDE8F08759F8240057461FF089FD1F4851
S31508003740296849F824A0FFF749FD29681C48FFF7AE
S3150800375045FD29681448FFF741FD38460AB0BDE81B
S31508003760F08759F8240037461FF072FD2968154876
S3150800377049F82460E7E729681348FFF72FFD6DE746
S3150800378006F046F8006839F0CDFD2968FFF726FDF2
S3150800379064E700BF804E0B08A84E0B0820500B08A4
S315080037A058500B08E8450B08B81D0E08607B0C0836
S315080037B0F04F0B08203F0E08EC350020FC4E0B0896
S315080037C0C04D0B08CC4F0B08C04E0B08EC39002037
S315080037D02DE9F0470A228AB000210546C06839F06B
S315080037E043FFB0F5803F24D2804604A928690AF031
S315080037F005F9431C074600F0B3800A2200216869D0
S3150800380039F032FFB0F5803F824612D2DFF89C913C
S3150800381000244B4653F8046BA6B101340A2CF9D19F
S31508003820002729685348FFF7D9FC38460AB0BDE88F
S31508003830F087296800275048FFF7D0FC38460AB0B9
S31508003840BDE8F08729684D48FFF7C8FCE9680846CF
S31508003850039139F095FD01230246039900962868DD
S3150800386020F08EF829684648FFF7B8FC296908460B
S31508003870039139F085FD01230246039900962868CD
S3150800388020F07EF829683F48FFF7A8FC69690846D2
S31508003890039139F075FD01230246039900962868BD
S315080038A020F06EF829683848FFF798FC324631460A
S315080038B021201FF06DFC074649F8240000284AD04D
S315080038C01FFA8AF204A91FF0A3FD8246002838D100
S315080038D01FFA88F22D4959F824001FF013FD0746F0
S315080038E0C0B929682A48FFF779FC2346294A4FF4C4
S315080038F0806129482AF0D2FE274839F041FD009711
S31508003900024601232868244920F03AF838460AB0C6
S31508003910BDE8F08759F8240057461FF099FC1F4860
S31508003920296849F824A0FFF759FC29681C48FFF7BD
S3150800393055FC29681448FFF751FC38460AB0BDE81B
S31508003940F08759F8240037461FF082FC2968154885
S3150800395049F82460E7E729681348FFF73FFC6DE755
S3150800396005F056FF006839F0DDFC2968FFF736FCDC
S3150800397064E700BF804E0B08A84E0B0860500B0882
S3150800398058500B08E8450B08B81D0E08607B0C0854
S31508003990F04F0B08203F0E08EC350020FC4E0B08B4
S315080039A0C04D0B08CC4F0B08C04E0B08EC39002055
S315080039B02DE9F0470A228AB000210546C06839F089
S315080039C053FEB0F5803F24D2804604A928690AF040
S315080039D015F8431C074600F0A4800A2200216869EE
S315080039E039F042FEB0F5803F824612D2DFF8789170
S315080039F000244B4653F8046BA6B101340A2CF9D1BE
S31508003A00002729684B48FFF7E9FB38460AB0BDE8A6
S31508003A10F087296800274848FFF7E0FB38460AB0D0
S31508003A20BDE8F08729684548FFF7D8FBE9680846E6
S31508003A30039139F0A5FC01230246039900962868EC
S31508003A401FF09EFF29683E48FFF7C8FB296908460C
S31508003A50039139F095FC01230246039900962868DC
S31508003A601FF08EFF29683748FFF7B8FB3246314604
S31508003A7020201FF08DFB074649F82400002837D080
S31508003A801FFA8AF204A91FF0C3FC0746002834D19E
S31508003A909DF82430062B19D029682B48FFF79EFB82
S31508003AA023462A4A4FF4806129482AF0F7FD284818
S31508003AB039F066FC00210246012328680091244952
S31508003AC01FF05EFF38460AB0BDE8F0871FFA88F295
S31508003AD0204959F824001FF015FC0028DCD059F8B5
S31508003AE024001FF0B5FB29681B4849F824700DE02F
S31508003AF029681A48FFF772FB90E759F824003746F9
S31508003B001FF0A6FB1648296849F82460FFF766FBEC
S31508003B1029681448FFF762FB29680A48FFF75EFB25
S31508003B207CE705F075FE006839F0FCFB2968FFF7AD
S31508003B3055FB73E7804E0B08A84E0B088C500B08F4
S31508003B4058500B08B81D0E08F04F0B08203F0E08FA
S31508003B50EC350020787B0C08FC4E0B08C04E0B0891
S31508003B60CC4F0B08C04D0B08EC3900202DE9F04767
S31508003B700A228AB000210546C06839F075FDB0F5FD
S31508003B80803F24D2804604A9286909F037FF431CE0
S31508003B90074600F0B3800A220021686939F064FDFF
S31508003BA0B0F5803F824612D2DFF89C9100244B463E
S31508003BB053F8046BA6B101340A2CF9D100272968F9
S31508003BC05348FFF70BFB38460AB0BDE8F08729686B
S31508003BD000275048FFF702FB38460AB0BDE8F087D1
S31508003BE029684D48FFF7FAFAE9680846039139F05B
S31508003BF0C7FB012302460399009628681FF0C0FEFA
S31508003C0029684648FFF7EAFA29690846039139F010
S31508003C10B7FB012302460399009628681FF0B0FEF9
S31508003C2029683F48FFF7DAFA69690846039139F0C7
S31508003C30A7FB012302460399009628681FF0A0FEF9
S31508003C4029683848FFF7CAFA3246314620201FF05D
S31508003C509FFA074649F8240000284AD01FFA8AF234
S31508003C6004A91FF0D5FB8246002838D11FFA88F22E
S31508003C702D4959F824001FF045FB0746C0B92968A5
S31508003C802A48FFF7ABFA2346294A4FF480612948A8
S31508003C902AF004FD274839F073FB009702460123F2
S31508003CA0286824491FF06CFE38460AB0BDE8F0873C
S31508003CB059F8240057461FF0CBFA1F48296849F8D7
S31508003CC024A0FFF78BFA29681C48FFF787FA2968AA
S31508003CD01448FFF783FA38460AB0BDE8F08759F862
S31508003CE0240037461FF0B4FA2968154849F82460B5
S31508003CF0E7E729681348FFF771FA6DE705F088FDCD
S31508003D00006839F00FFB2968FFF768FA64E700BF17
S31508003D10804E0B08A84E0B08BC500B0858500B08D1
S31508003D20E8450B08B81D0E08607B0C08F04F0B0819
S31508003D30203F0E08EC350020FC4E0B08C04D0B0842
S31508003D40CC4F0B08C04E0B08EC390020F0B50A2200
S31508003D5087B000210446C06839F086FC0A2845DC8D
S31508003D60294F054657F82000002846D005A91FF018
S31508003D70D3FC064658B125482168FFF72FFA57F8AD
S31508003D8025001FF00FFE10BB002007B0F0BD0598F8
S31508003D9033464FF480621E49006812F00DF8059B01
S31508003DA021681B681B481A890392FFF717FA012333
S31508003DB0039A1749009620681FF0E2FD05981EF041
S31508003DC067FF57F825001FF0EDFD0028DCD02168B5
S31508003DD01148FFF703FA21681048FFF7FFF9216831
S31508003DE00F48FFF7FBF9002007B0F0BD21680D4822
S31508003DF0FFF7F4F9002007B0F0BD21680A48FFF77D
S31508003E00EDF9002007B0F0BDEC39002000510B0891
S31508003E10EC350020E4500B0808510B08C04D0B0880
S31508003E20B81D0E08604D0B08844D0B082DE9F041AE
S31508003E3004469CB0104617460D464FF0000839F068
S31508003E409FFA06463946204601233246CDF80080B9
S31508003E501FF096FD092E27D900262A88174903A898
S31508003E6008F0CEFC03A902460123204600961FF05F
S31508003E7087FD6A8803A8124908F0C2FC03A902460E
S31508003E800123204600961FF07BFDAA8803A80D494A
S31508003E9008F0B6FC03A902460123204600961FF047
S31508003EA06FFD1CB0BDE8F081C6F10A020123064980
S31508003EB02046CDF800801FF063FDCDE724510B089E
S31508003EC034510B0858510B08740400202DE9F043AF
S31508003ED08BB00746C06804A909F090FD431C00F0A2
S31508003EE097800A220021386939F0BEFBB0F5803F79
S31508003EF0814660D2DFF864810024434653F8045BA8
S31508003F005DB101340A2CF9D1002639684548FFF716
S31508003F1065F930460BB0BDE8F08339684248FFF7CB
S31508003F205DF9F9680846039139F02AFA00950246C0
S31508003F300123039938681FF023FD39683B48FFF7CA
S31508003F404DF939690846039139F01AFA009502467F
S31508003F500123039938681FF013FD39683448FFF7C1
S31508003F603DF92A46294610201FF012F9064648F858
S31508003F702400002844D01FFA89F204A91FF048FA41
S31508003F80064608BB39682B48FFF728F923462A4A0C
S31508003F904FF4806129482AF081FB284839F0F0F966
S31508003FA0009602460123386824491FF0E9FC30468A
S31508003FB00BB0BDE8F083002639682148FFF70EF9F3
S31508003FC030460BB0BDE8F0831E4A2E461E491F48F0
S31508003FD008F040FC39681E48FFF700F939681D48A3
S31508003FE0FFF7FCF839681248FFF7F8F858F8240084
S31508003FF01FF02EF9304648F824500BB0BDE8F08380
S3150800400039681548FFF7EAF830460BB0BDE8F08383
S31508004010064605F0FDFB006839F084F93968FFF7B4
S31508004020DDF8C4E7804E0B0880510B08E8450B08FD
S31508004030B81D0E08244F0B08203F0E08EC3500204B
S31508004040A84E0B08C0A50E0874510B08288102203B
S31508004050CC4F0B08C04D0B08C04E0B08EC3900209E
S3150800406010B586B004460222C06869461FF012FDE4
S31508004070A8B9114968464FF4806209F0B5FC216871
S31508004080A0B10E48FFF7AAF821680B48FFF7A6F873
S3150800409021680B48FFF7A2F8002006B010BD21687A
S315080040A00848FFF79BF8002006B010BD0648FFF742
S315080040B095F8002006B010BDEC35002098510B0885
S315080040C0B81D0E08C0510B08A8510B0810B50446B8
S315080040D082B0C06821F050F9A0B103460D4A4FF4EA
S315080040E080610D482AF0DAFA0B4839F049F90021BF
S315080040F0024601232068009107491FF041FC002071
S3150800410002B010BD21680548FFF768F8002002B024
S3150800411010BD00BFD0510B08EC350020D8510B0854
S31508004120F8B50A2200210546C06839F09DFA0A2822
S3150800413021DC174F044657F8200010B31FF02EFC59
S315080041402968064650B91348FFF748F857F8240077
S315080041501FF07EF8002047F82460F8BD0E48FFF7E8
S315080041603DF829680D48FFF739F829680C48FFF724
S3150800417035F80020F8BD29680A48FFF72FF800200F
S31508004180F8BD29680848FFF729F80020F8BD00BFE0
S31508004190EC39002010520B08F0510B08C04D0B08E3
S315080041A0B81D0E08604D0B08844D0B0830B500216C
S315080041B083B00A220446C06839F056FA164921F037
S315080041C0C7F888B10025144839F0DAF80123024601
S315080041D00095114920681FF0D3FB21680F48FEF7A8
S315080041E0FDFF002003B030BD054605F011FB0C4A63
S315080041F04FF48061036808482AF050FA064839F0F7
S31508004200BFF8009502460123206803491FF0B8FB52
S31508004210002003B030BD00BFEC350020B81D0E08E5
S3150800422028520B08F0B59DB04FF0FF3204460D46F4
S3150800423003A82C4908F0E4FA03A839F0A1F80027E6
S31508004240064603A920460123324600971FF098FB2D
S31508004250092E3ED900266A8803A8234908F0D0FA11
S315080042600123024603A9204600961FF089FBAA8867
S315080042701E4903A808F0C4FA0123024603A92046EA
S3150800428000961FF07DFBEA88194903A808F0B8FADA
S315080042900123024603A9204600961FF071FB2A88CF
S315080042A0144903A808F0ACFA0123024603A92046DC
S315080042B000961FF065FB2A890F4903A808F0A0FAA3
S315080042C003A902460123204600961FF059FB1DB09C
S315080042D0F0BDC6F10A0201230849204600971FF0DF
S315080042E04FFBB7E7A8F90D0848520B085C520B08B4
S315080042F034510B0858510B0874520B0874040020EB
S315080043002DE9F04F0A229FB0DFF8D8A00646DFF85D
S31508004310D8B000272749284DDFF8D0900097012309
S315080043203068023D1FF02CFB244C254ADFF8C0807C
S3150800433001E054F8042F35F8023F414605A808F075
S315080043405FFA009782B2012305A930681FF018FBAF
S315080043504C45EED11B4B9A450AD05BF8041B5AF81C
S31508004360045B0846039139F00BF803990246D5E732
S31508004370154C3068A4F1080104F15005FFF752FF07
S3150800438054F8041F3068FFF74DFFA542F8D130688E
S315080043900E4A0F49FFF74AFD30680E4A0E49FFF7E5
S315080043A045FD30680D4A0E49FFF740FD00201FB055
S315080043B0BDE8F08F90520B08D48102201C570B08D9
S315080043C09C520B081C570B08A0820220B4520B08FB
S315080043D0F4820220C0520B08FA820220CC520B0843
S315080043E00083022004570B08E4560B0848570B08AD
S315080043F0AC520B08002310202DE9F04F2DED028B4F
S3150800440097B01A46194602931EF0C2FE8146002846
S3150800441000F005861722A4491EF074FF04460028FA
S3150800442040F01586FF2148461FF046F8002840F060
S3150800443002869E4B08EE109ADFF8908204939C4BF6
S31508004440059307A918EE100A1FF05EF80028F8D1A0
S315080044500546079F044608A938461FF0E5F8D0B177
S31508004460029B0F3300F0FA829249934808F0A8F9A4
S315080044703846924C00251FF091FA54F8040B08B1FF
S315080044801EF0E6FE8E4B44F8045CA342F5D107986D
S315080044901EF0DEFED5E70898018946680FFA81FC0A
S315080044A04B1EBCF1000F1FFA83FB1AB240F3C882F9
S315080044B016F801AB082D0AD8DFE815F00E02D70169
S315080044C0070209000900090009000B0209028B1EF0
S315080044D0002A1BB23CDDA14616F801AB9BB2BAF125
S315080044E0FF0F19B212D0621CBAF10D0F08F804A01A
S315080044F094B200F02682002940F3B482013B16F8F4
S3150800450001AB9BB2BAF1FF0F19B2ECD1013B0029FE
S315080045101FFA83FB1AB240F3C18216F801ABAAF15F
S31508004520F60ABAF1090F0BD8DFE81AF092010A0069
S315080045300A000A000E0154019500D20038002B002B
S315080045400BF1FF331BB2002AC6DC4C4537D8089856
S3150800455011F088F9002C40F07D8208A938461FF032
S3150800456063F800287FF47CAF089802894668531ED2
S3150800457012B2002A1BB240F35D84A14616F801ABBD
S31508004580ACE70BF1FF33651CFF21002A1BB2ADB265
S3150800459008F8041040F3BE832C469DE70BF1FF3B59
S315080045A0002A1FFA8BF30FFA8BFB40F3C083013600
S315080045B0013BBBF1000F1BB28EDC4C45C7D9002569
S315080045C0C9F10100204480B212F008F80646002816
S315080045D000F0C181A4EB090A0A2308EB090104F1DA
S315080045E0FF390AF1010208F80430039229F090FC19
S315080045F018F809300020039A31460D2B00904FF029
S315080046000103384618BF52461FF0BAF9304611F072
S315080046103FFE089811F026F918F809300A2B18BF3A
S315080046200D2B03D0B4F5806FFFF415AF98F8006032
S31508004630FF2E06D098F80130FE2B02D0012C00F28E
S315080046408D8139461F48FEF7C9FD39461E480024A4
S31508004650FEF7C4FDFFE60BF1FF3B002A1FFA8BF3BA
S315080046600FFA8BFBA3DC4C4500F2D283089811F0B5
S31508004670F9F8002C40F0FC8308A938461EF0D4FF50
S3150800468000287FF4EDAE0898038946681AB203F14C
S31508004690FF3B002A1FFA8BF30FFA8BFB40F35B8470
S315080046A00136A14684E700BF607B0C080143000879
S315080046B0FD310008C0A50E083C550B08EC39002052
S315080046C0143A002088540B0828550B08EC350020AE
S315080046D00BF1FF3B002A1FFA8BF30FFA8BFB3FF710
S315080046E066AF4C4500F29183089811F0BBF8002C90
S315080046F040F0B98308A938461EF096FF00287FF4D3
S31508004700AFAE0898038946681AB203F1FF3B002A40
S315080047101FFA8BF30FFA8BFBC2DC11F0A3F808A97A
S3150800472038461EF081FF00287FF49AAE0898038960
S3150800473046681AB203F1FF3B002A1FFA8BF30FFAF9
S315080047408BFBADDC052577E10BF1FF33002A1BB2A5
S3150800475023DD16F801AB9BB2BAF1FF0F19B20AD0E6
S31508004760002940F35081013B16F801AB9BB2BAF120
S31508004770FF0F19B2F4D1013B00291FFA83FB1AB2C5
S3150800478040F3BD8116F801AB0BF1FF33BAF1F00F18
S315080047901BB23FF4D8AE002ADBDC4C4500F2588148
S315080047A0089811F05FF8002C40F0868208A9384670
S315080047B01EF03AFF00287FF453AE0898028946682F
S315080047C0531E12B2002A1BB240F36583A14616F89F
S315080047D001ABC0E70BF1FF3B002A1FFA8BF30FFA78
S315080047E08BFB3FF7E4AE4C4500F21583089811F0B1
S315080047F039F8002C40F0418308A938461EF014FF0A
S3150800480000287FF42DAE0898038946681AB203F18A
S31508004810FF3B002A1FFA8BF30FFA8BFB3FF740AFDB
S3150800482011F020F808A938461EF0FEFE00287FF48D
S3150800483017AE0898038946681AB203F1FF3B002AA7
S315080048401FFA8BF30FFA8BFB3FF72AAF0325F3E02A
S315080048503946B9480392FEF7C1FC039A0BF1FF33B8
S31508004860002A1BB23FF738AE6FE6A1460BF1FF33BD
S31508004870BAF1000F33D0BAF10A0F3FF463AE611CE8
S31508004880002A08F804A01BB28CB23FF725AE4C45A7
S315080048903FF695AE089810F0E5FF002C40F0DA8058
S315080048A008A938461EF0C0FE814600287FF4D8AD18
S315080048B0089802894668531E12B2002A1BB240F3B2
S315080048C0108316F801AB4C4608E6A14627E6A14632
S315080048D05AE71346A1463EE71346A146FEE5002AD7
S315080048E01BB23FF7F9AD4C453FF669AE089810F094
S315080048F0B9FF002C40F0AE8008A938461EF094FE99
S3150800490000287FF4ADAD089802894668531E12B296
S31508004910002A1BB23FF731AE10F0A4FF08A93846AB
S315080049201EF082FE814600287FF49AAD0898028917
S315080049304668531E12B2002A1BB23FF7CDAD554644
S315080049407AE0013B00291FFA83FB1AB240F3B881CB
S3150800495016F801AB8AE704F1FF395AE6D8F80030B1
S31508004960764A934200F02581754A934200F0C78142
S31508004970744A934200F01182734A934200F04E82C1
S31508004980724A934200F07E82714A934200F0A282F4
S31508004990704A934200F0BA826F4AD8F800309342C0
S315080049A000F0D2826D4A934200F0ED826C4A93423F
S315080049B000F0F0826B4A934200F0F3826A4A93420F
S315080049C000F00883694A934200F0F282684BD8F8EF
S315080049D000209A4200F0058309226649664838F0A5
S315080049E03DFD002800F0148304226449624838F02B
S315080049F035FD002840F0E081059B8DF82C000A93D0
S31508004A005F4B059334E14C4522D8089810F02AFFED
S31508004A10002C40F0518108A938461EF005FE0028F2
S31508004A207FF41EAD089802894668531E12B2002A02
S31508004A301BB23FF7CBAE0725002410F013FF0AE59B
S31508004A4010F010FF002C3FF406AD04F1FF39E3E542
S31508004A500725B5E5002504F1FF39DDE5494807F0E6
S31508004A60B1FB05E54C453FF6AAAD089810F0FAFEED
S31508004A70002CEFD108A938461EF0D6FD00287FF491
S31508004A80EFAC089981460A894E68531E12B2002A6D
S31508004A901BB23FF716AF08464D46CDE74C4500F228
S31508004AA03781089810F0DEFE002C40F0978108A99F
S31508004AB038461EF0B9FD00287FF4D2AC0898018963
S31508004AC046684B1E09B200291FFA83FB1AB201DD9C
S31508004AD0A14622E510F0C6FE08A938461EF0A4FD38
S31508004AE000287FF4BDAC0898018946684B1E09B2B8
S31508004AF000291FFA83FB1AB2EADC02259CE74C451B
S31508004B0000F20481089810F0ADFE002C40F0628196
S31508004B1008A938461EF088FD00287FF4A1AC08983D
S31508004B20018946684B1E09B200291FFA83FB1AB28F
S31508004B302ADDA14626E600BF68530B086F70656E2E
S31508004B406C73746E61637074636C6F737374617481
S31508004B5073656E6472656376756470637564706296
S31508004B607564706C7564706E75736E646964787458
S31508004B706E616D65E4530B08EC350020F0530B08A5
S31508004B80FD3100082C550B0810F06CFE08A93846B4
S31508004B901EF04AFD00287FF463AC08980189466830
S31508004BA04B1E09B200291FFA83FB1AB2C1DC08257D
S31508004BB042E74FF0020BB94B8DF82CB00A93B8496F
S31508004BC0002206E00132013394429BB271D911F8F2
S31508004BD0016F202E93B2F5D100210BA80BF1FF39F6
S31508004BE0DFF8ECE28A464FF0200C9C4206D807E034
S31508004BF001339BB29C4218F8036001D9202EF7D0E6
S31508004C000D2E2CD00A2E2AD09C42C0F0CD8008EB5F
S31508004C10030240F8042F0AD812E05C2E01D108F8E6
S31508004C2003C001339BB29C420AD918F80360A6F167
S31508004C300A02D2B2162AF0D82EFA02F2D207F0D514
S31508004C409C42C0F0BF805A1C894508F803A093B25D
S31508004C500DD001310A290AD018F80360C5E70022E9
S31508004C60494508F80320C0F29F80594514DA0A9B83
S31508004C7009A80997984703460290043300F0B580BF
S31508004C80029B002B3FF4E1AC0433032B3FF6DDAC6B
S31508004C90DFE803F00A028A9839468248FEF79EFA48
S31508004CA06FF002030293D0E439467F48FEF796FA7E
S31508004CB0CBE418F803608FE7072504F1FF39ABE466
S31508004CC04C4568D8089810F0CDFD002C40F0AD8012
S31508004CD008A938461EF0A8FC814600287FF4C0AB18
S31508004CE00898018946684B1E09B200291FFA83FBFA
S31508004CF01AB240F3128116F801AB4C46B6E54FF0EE
S31508004D00010B6A4B8DF82CB00A9358E7082557E42F
S31508004D10022555E44D4574D8089810F0A3FD002DDA
S31508004D203FF4BEAD2C46002504F1FF3974E44C452A
S31508004D3064D8089810F096FD002C40F08F8008A9DA
S31508004D4038461EF071FC00287FF48AAB0898038960
S31508004D5046681AB203F1FF3B002A1FFA8BF30FFAD3
S31508004D608BFB3FF79DAC10F07DFD08A938461EF079
S31508004D705BFC00287FF474AB0898038946681AB26E
S31508004D8003F1FF3B002A1FFA8BF30FFA8BFB3FF761
S31508004D9087AC062550E6012512E44FF0010B444B7B
S31508004DA08DF82CB00A930AE739464248FEF716FAF8
S31508004DB06FF00103029348E404223F49384838F06B
S31508004DC04DFB78B139463D48FEF708FA4FF0FF33F8
S31508004DD002933AE4082504F1FF391DE4022504F19B
S31508004DE0FF3919E4364807F0EDF9364807F0EAF9CD
S31508004DF039462D48FEF7F2F9FFF73ABB0625FFF7C5
S31508004E00DFBB2C460025FFF7DBBB0525FFF7D8BB24
S31508004E100425FFF7D5BB0325FFF7D2BB4FF0010BDF
S31508004E20294B8DF82CB00A93C9E6012504F1FF3900
S31508004E30FFF7F2BB10F016FD08A938461EF0F4FB82
S31508004E4000287FF40DAB089802894668531E12B2F3
S31508004E50002A1BB23FF791AB2546EDE5062504F17E
S31508004E60FF39FFF7D9BB052504F1FF39FFF7D4BB96
S31508004E70042504F1FF39FFF7CFBB032504F1FF39F9
S31508004E80FFF7CABB049B114A0A93002304928DF8C4
S31508004E902C301346ECE610F0E5FCBCE5CD3E0008E8
S31508004EA0EC3500205C540B0808540B08C133000885
S31508004EB0E932000834540B0870290B0820540B08F3
S31508004EC0F8530B0800540B08214100080143000859
S31508004ED0090040004FF0020B634B8DF82CB00A9383
S31508004EE06DE610F0BFFC08A938461EF09DFB054686
S31508004EF000287FF4B5AA089802894668531E12B29C
S31508004F00002A1BB27FF798ADA946DAE44FF0010BE9
S31508004F10564B8DF82CB00A9351E610F0A3FC08A95D
S31508004F2038461EF081FB814600287FF499AA089826
S31508004F30018946684B1E09B200291FFA83FB1AB27B
S31508004F403FF7D9AE012577E54FF0030B484B8DF8AF
S31508004F502CB00A9333E610F085FC08A938461EF0F3
S31508004F6063FB00287FF47CAA0898038946681AB26E
S31508004F7003F1FF3B002A1FFA8BF30FFA8BFB3FF76F
S31508004F808FAB042558E54FF0020B3A4B8DF82CB041
S31508004F900A9314E64FF0030B374B8DF82CB00A939F
S31508004FA00DE64FF0030B354B8DF82CB00A9306E649
S31508004FB0334A344B12689A427FF408AD324B1B7859
S31508004FC0652B7FF403AD4FF0010B304B8DF82CB0F9
S31508004FD00A93F4E54FF0020B2D4B8DF82CB00A938B
S31508004FE0EDE503F17E43264A03F57C03126803F6D2
S31508004FF006639A427FF4F0AC234B1B78782B7FF438
S31508005000EBAC4FF0010B234B8DF82CB00A93D6E589
S315080050104FF0010B204B8DF82CB00A93CFE51F4BB0
S315080050204FF4AB621E491F4807F0CAFB484607F013
S31508005030EFF828F055FF194B40F261521A49194802
S3150800504007F0BEFB204607F0E3F828F049FF134BAC
S3150800505040F25F521549134807F0B2FB029807F071
S31508005060D7F828F03DFF00BF293200084D3D00085B
S315080050706D3B0008B1390008D1370008F135000842
S31508005080F03500206F6E616DF4350020AD410008E3
S3150800509019350008CD40000861400008D8520B08B1
S315080050A018530B0860260B0848530B082C530B089B
S315080050B000B5002383B001220449054800921A4628
S315080050C029F00CF803B05DF804FB00BFF5430008AF
S315080050D048550B080022182030B5114687B01EF037
S315080050E057F80546072221491EF00CF9002D32D043
S315080050F00024FF2128461EF0DFF903A928461EF0E2
S3150800510003FA0028F9D104A903981EF005FBD8B9BB
S315080051100DF10A0205A904981DF072FE0123BDF8D7
S315080051200A200599039800941EF02AFC04981DF09D
S31508005130A5FE0028ECDA04981DF0AAFD04A9039838
S315080051401EF0EAFA0028E3D003981EF027FC03981D
S315080051501EF07EF8D1E7064B39220649064807F0C5
S315080051602FFB284607F054F828F0BAFE88850C0865
S315080051704C570B0890570B0860260B0800B5002300
S3150800518083B001220449054800921A4628F0A6FF72
S3150800519003B05DF804FB00BFD5500008A8570B08FC
S315080051A079B110B50C460021204609F069F8204669
S315080051B0002109F085F82046034909F065F8002022
S315080051C010BD0020704700BFCD51000870B5B3FA76
S315080051D083F40E46154664094AB144B10846118956
S315080051E008F0A2FF284610F03DFB002070BD2846B7
S315080051F010F038FB002DF8D1002CF6D030460021EF
S3150800520009F03EF83046002109F05AF800213046E8
S3150800521009F03AF8304609F0CBFE002070BD00BF11
S3150800522010B52E2009F0E6FD044644F64F1206494D
S3150800523008F02CFDFF21204608F034FF0349BDE89D
S31508005240104009F075B800BF14560C08A1510008A3
S315080052502DE9F04F85B01F4600240DF10408DDE95D
S315080052600F96C4462546013486460A2CB0FBF1F350
S3150800527001FB130B184612F80BB00CF801BB01D84A
S315080052808E45EFD227B10E9BDB0748BF07F1FF37E4
S315080052900E9B13EA090F01D02D20B047A7420BD960
S315080052A0B9F1000F14BF4FF0300A4FF0200A01344D
S315080052B05046B047A742FAD189F001090E9B19EA70
S315080052C0030F01D02D20B047454401E015F801BD74
S315080052D05846B047A845F9D105B0BDE8F08F00BFDC
S315080052E02DE9F0470446054684B014F8010B00285A
S315080052F054D00F461646DFF830A1DFF83091DFF8B4
S31508005300308105E025460134B0472878002845D085
S315080053102528F7D16C78302C4BD002350021A4F122
S315080053203003092B4FF000030AD803EB830304EB81
S31508005330430315F8014BA4F13002303B092AF4D98E
S315080053406C2C08BF15F8014B782C23D8572C28D974
S31508005350583C202C1ED8DFE804F05B1D1D1D1D1DC2
S315080053601D1D1D1D1D55111D1D1D1D1D1D1D1D1D33
S315080053701D1D491D1D3C1D301D1D490057F8040BF8
S3150800538000284BDB0022CDE9011600920A2142468D
S31508005390FFF75EFF6C1C28780028B9D104B0BDE879
S315080053A0F087002C37D0252CF4D120466C1CB0474A
S315080053B0ABE7AC7801210335B1E7002457F8040BB5
S315080053C0424600946C1CCDE901160A21FFF740FFFE
S315080053D09BE757F8044B14F8010B0028DAD0B047BE
S315080053E0207801340028FAD16C1CD4E700244A46F8
S315080053F057F8040B00946C1CCDE901161021FFF731
S3150800540027FF82E757F8040B6C1CC0B2B0477CE74D
S3150800541000245246ECE72C46013D76E7012240423D
S31508005420CDE90116B1E700BFF0570B0810580B0875
S3150800543004580B0803680A46012B07D0022B04D12F
S3150800544000F108010448FFF74BBF704700F10C0153
S315080054508068FFF745BF00BFB8570B0810B50C4664
S3150800546082B00346044801A922460193FFF738FF94
S315080054700A20A04702B010BDD8570B080EB470B565
S315080054808BB001240FAB029453F8041B1D460A780F
S3150800549004910193052C8CBF0023012332B12BB153
S315080054A0252A0BD011F8012F002AF8D102A929F0D4
S315080054B025FB0BB0BDE8704003B070474A788B1CDB
S315080054C0A2F13001092905D813F8012BA2F1300100
S315080054D00929F9D96C2A26D0002A00F08380583A7F
S315080054E0D1B220297BD8202A79D8DFE802F06D7856
S315080054F0787878787878787878116D787878787890
